{
  "contractName": "CareerPlan",
  "abi": [
    {
      "constant": true,
      "inputs": [
        {
          "name": "",
          "type": "uint8"
        }
      ],
      "name": "levelAmountToDistribute",
      "outputs": [
        {
          "name": "",
          "type": "uint256"
        }
      ],
      "payable": false,
      "stateMutability": "view",
      "type": "function"
    },
    {
      "constant": true,
      "inputs": [],
      "name": "smartLotto",
      "outputs": [
        {
          "name": "",
          "type": "address"
        }
      ],
      "payable": false,
      "stateMutability": "view",
      "type": "function"
    },
    {
      "constant": true,
      "inputs": [
        {
          "name": "",
          "type": "uint8"
        }
      ],
      "name": "levelStatus",
      "outputs": [
        {
          "name": "balance",
          "type": "uint256"
        }
      ],
      "payable": false,
      "stateMutability": "view",
      "type": "function"
    },
    {
      "inputs": [],
      "payable": false,
      "stateMutability": "nonpayable",
      "type": "constructor"
    },
    {
      "anonymous": false,
      "inputs": [
        {
          "indexed": true,
          "name": "_user",
          "type": "address"
        },
        {
          "indexed": true,
          "name": "_userId",
          "type": "uint256"
        },
        {
          "indexed": true,
          "name": "_level",
          "type": "uint8"
        }
      ],
      "name": "UserUpgradeLevel",
      "type": "event"
    },
    {
      "anonymous": false,
      "inputs": [
        {
          "indexed": true,
          "name": "_user",
          "type": "address"
        },
        {
          "indexed": true,
          "name": "_userId",
          "type": "uint256"
        },
        {
          "indexed": true,
          "name": "_level",
          "type": "uint8"
        },
        {
          "indexed": false,
          "name": "_amount",
          "type": "uint256"
        }
      ],
      "name": "UserEarned",
      "type": "event"
    },
    {
      "constant": false,
      "inputs": [
        {
          "name": "contractAddress",
          "type": "address"
        }
      ],
      "name": "setSmartLottoAddress",
      "outputs": [],
      "payable": false,
      "stateMutability": "nonpayable",
      "type": "function"
    },
    {
      "constant": false,
      "inputs": [],
      "name": "addToBalance",
      "outputs": [],
      "payable": true,
      "stateMutability": "payable",
      "type": "function"
    },
    {
      "constant": false,
      "inputs": [
        {
          "name": "_user",
          "type": "address"
        },
        {
          "name": "_id",
          "type": "uint256"
        },
        {
          "name": "_level",
          "type": "uint8"
        }
      ],
      "name": "addUserToLevel",
      "outputs": [],
      "payable": false,
      "stateMutability": "nonpayable",
      "type": "function"
    }
  ],
  "bytecode": "0x608060405234801561001057600080fd5b50d3801561001d57600080fd5b50d2801561002a57600080fd5b50336000806101000a81548173ffffffffffffffffffffffffffffffffffffffff021916908373ffffffffffffffffffffffffffffffffffffffff1602179055506302faf08060036000600160ff168152602001908152602001600020819055506305f5e10060036000600260ff16815260200190815260200160002081905550630bebc20060036000600360ff168152602001908152602001600020819055506311e1a30060036000600460ff168152602001908152602001600020819055506317d7840060036000600560ff16815260200190815260200160002081905550610b728061011a6000396000f3fe6080604052600436106100555760003560e01c80634c3846381461005a57806373a16d91146100c65780637db5bba414610137578063a1fb0fd3146101a2578063b2988c8714610224578063c0e317fb14610290575b600080fd5b34801561006657600080fd5b50d3801561007357600080fd5b50d2801561008057600080fd5b506100b06004803603602081101561009757600080fd5b81019080803560ff16906020019092919050505061029a565b6040518082815260200191505060405180910390f35b3480156100d257600080fd5b50d380156100df57600080fd5b50d280156100ec57600080fd5b506100f56102b2565b604051808273ffffffffffffffffffffffffffffffffffffffff1673ffffffffffffffffffffffffffffffffffffffff16815260200191505060405180910390f35b34801561014357600080fd5b50d3801561015057600080fd5b50d2801561015d57600080fd5b506101a06004803603602081101561017457600080fd5b81019080803573ffffffffffffffffffffffffffffffffffffffff1690602001909291905050506102d8565b005b3480156101ae57600080fd5b50d380156101bb57600080fd5b50d280156101c857600080fd5b50610222600480360360608110156101df57600080fd5b81019080803573ffffffffffffffffffffffffffffffffffffffff16906020019092919080359060200190929190803560ff1690602001909291905050506103de565b005b34801561023057600080fd5b50d3801561023d57600080fd5b50d2801561024a57600080fd5b5061027a6004803603602081101561026157600080fd5b81019080803560ff169060200190929190505050610768565b6040518082815260200191505060405180910390f35b610298610786565b005b60036020528060005260406000206000915090505481565b600160009054906101000a900473ffffffffffffffffffffffffffffffffffffffff1681565b6000809054906101000a900473ffffffffffffffffffffffffffffffffffffffff1673ffffffffffffffffffffffffffffffffffffffff163373ffffffffffffffffffffffffffffffffffffffff161461039a576040517f08c379a000000000000000000000000000000000000000000000000000000000815260040180806020018281038252600a8152602001807f726573747269637465640000000000000000000000000000000000000000000081525060200191505060405180910390fd5b80600160006101000a81548173ffffffffffffffffffffffffffffffffffffffff021916908373ffffffffffffffffffffffffffffffffffffffff16021790555050565b600073ffffffffffffffffffffffffffffffffffffffff16600160009054906101000a900473ffffffffffffffffffffffffffffffffffffffff1673ffffffffffffffffffffffffffffffffffffffff1614156104a3576040517f08c379a000000000000000000000000000000000000000000000000000000000815260040180806020018281038252601b8152602001807f726571756972656420536d6172744c6f74746f2061646472657373000000000081525060200191505060405180910390fd5b3373ffffffffffffffffffffffffffffffffffffffff16600160009054906101000a900473ffffffffffffffffffffffffffffffffffffffff1673ffffffffffffffffffffffffffffffffffffffff1614610566576040517f08c379a000000000000000000000000000000000000000000000000000000000815260040180806020018281038252600f8152602001807f6f6e6c7920536d6172744c6f74746f000000000000000000000000000000000081525060200191505060405180910390fd5b6000600260008360ff1660ff16815260200190815260200160002060020160008573ffffffffffffffffffffffffffffffffffffffff1673ffffffffffffffffffffffffffffffffffffffff1681526020019081526020016000205414610635576040517f08c379a00000000000000000000000000000000000000000000000000000000081526004018080602001828103825260128152602001807f5573657220616c7265616479206578697374000000000000000000000000000081525060200191505060405180910390fd5b81600260008360ff1660ff16815260200190815260200160002060020160008573ffffffffffffffffffffffffffffffffffffffff1673ffffffffffffffffffffffffffffffffffffffff16815260200190815260200160002081905550600260008260ff1660ff1681526020019081526020016000206001018390806001815401808255809150509060018203906000526020600020016000909192909190916101000a81548173ffffffffffffffffffffffffffffffffffffffff021916908373ffffffffffffffffffffffffffffffffffffffff1602179055505061071b610868565b8060ff16828473ffffffffffffffffffffffffffffffffffffffff167f43b30a28b6ee5ccf7e14b2e4681a5340c522951356b9c6d0212f2f8530f4460260405160405180910390a4505050565b60026020528060005260406000206000915090508060000154905081565b60006005348161079257fe5b0490508060026000600160ff168152602001908152602001600020600001600082825401925050819055508060026000600260ff168152602001908152602001600020600001600082825401925050819055508060026000600360ff168152602001908152602001600020600001600082825401925050819055508060026000600460ff168152602001908152602001600020600001600082825401925050819055508060026000600560ff16815260200190815260200160002060000160008282540192505081905550610865610868565b50565b6000600190505b60058160ff16116108fa57600360008260ff1660ff16815260200190815260200160002054600260008360ff1660ff16815260200190815260200160002060000154101580156108de57506000600260008360ff1660ff16815260200190815260200160002060010180549050115b156108ed576108ec816108fd565b5b808060010191505061086f565b50565b6000600260008360ff1660ff16815260200190815260200160002060010180549050600360008460ff1660ff168152602001908152602001600020548161094057fe5b04905060008090505b600260008460ff1660ff168152602001908152602001600020600101805490508160ff161015610b38576000600260008560ff1660ff1681526020019081526020016000206001018260ff168154811061099f57fe5b9060005260206000200160009054906101000a900473ffffffffffffffffffffffffffffffffffffffff1690508073ffffffffffffffffffffffffffffffffffffffff166108fc849081150290604051600060405180830381858888f19350505050610a54578073ffffffffffffffffffffffffffffffffffffffff166108fc849081150290604051600060405180830381858888f19350505050158015610a4b573d6000803e3d6000fd5b50505050610b3b565b82600260008460ff1660ff168152602001908152602001600020600001600082825403925050819055508360ff16600260008660ff1660ff16815260200190815260200160002060020160008373ffffffffffffffffffffffffffffffffffffffff1673ffffffffffffffffffffffffffffffffffffffff168152602001908152602001600020548273ffffffffffffffffffffffffffffffffffffffff167fefb0ae9b2af1246226970dff70936ce66754dde83e56e531a0b1ffb766a26137866040518082815260200191505060405180910390a4508080600101915050610949565b50505b5056fea26474726f6e5820874498000470a922c8b3fe016905298b13b46f66cb60c4cd4eb6624e9f393c1c64736f6c634300050a0031",
  "source": "pragma solidity ^0.5.10;\r\n\r\ncontract CareerPlan {\r\n    address admin;\r\n    address public smartLotto;\r\n\r\n    struct LevelStatus {\r\n        uint balance;\r\n        address[] usersAddress;\r\n        mapping(address => uint) usersIds;\r\n    }\r\n\r\n    mapping(uint8 => LevelStatus) public levelStatus;\r\n    mapping(uint8 => uint) public levelAmountToDistribute;\r\n\r\n    modifier onlySmartLotto () {\r\n        require(smartLotto != address(0), 'required SmartLotto address');\r\n        require(smartLotto == msg.sender, 'only SmartLotto');\r\n        _;\r\n    }\r\n\r\n    modifier restricted() {\r\n        require(msg.sender == admin, \"restricted\");\r\n        _;\r\n    }\r\n\r\n    event UserUpgradeLevel(address indexed _user, uint indexed _userId, uint8 indexed _level);\r\n    event UserEarned(address indexed _user, uint indexed _userId, uint8 indexed _level, uint _amount);\r\n\r\n    constructor() public {\r\n        admin = msg.sender;\r\n        //todo: change\r\n//        levelAmountToDistribute[1] = 1044873 * 1e6;\r\n//        levelAmountToDistribute[2] = 5433342 * 1e6;\r\n//        levelAmountToDistribute[3] = 10448735 * 1e6;\r\n//        levelAmountToDistribute[4] = 33435952 * 1e6;\r\n//        levelAmountToDistribute[5] = 83589880 * 1e6;\r\n        levelAmountToDistribute[1] = 50 * 1e6;\r\n        levelAmountToDistribute[2] = 100 * 1e6;\r\n        levelAmountToDistribute[3] = 200 * 1e6;\r\n        levelAmountToDistribute[4] = 300 * 1e6;\r\n        levelAmountToDistribute[5] = 400 * 1e6;\r\n    }\r\n\r\n    function setSmartLottoAddress(address contractAddress) external restricted {\r\n        smartLotto = contractAddress;\r\n    }\r\n\r\n    function addToBalance() external payable {\r\n        uint amount = msg.value / 5;\r\n        levelStatus[1].balance += amount;\r\n        levelStatus[2].balance += amount;\r\n        levelStatus[3].balance += amount;\r\n        levelStatus[4].balance += amount;\r\n        levelStatus[5].balance += amount;\r\n        applyDistribution();\r\n    }\r\n\r\n    function addUserToLevel(address _user, uint _id, uint8 _level) external onlySmartLotto {\r\n        require(levelStatus[_level].usersIds[_user] == 0, 'User already exist');\r\n        levelStatus[_level].usersIds[_user] = _id;\r\n        levelStatus[_level].usersAddress.push(_user);\r\n        applyDistribution();\r\n        emit UserUpgradeLevel(_user, _id, _level);\r\n    }\r\n\r\n    function applyDistribution() internal {\r\n        for(uint8 i = 1; i <= 5; i++) {\r\n            if(levelStatus[i].balance >= levelAmountToDistribute[i] && levelStatus[i].usersAddress.length > 0) {\r\n                sendDistribution(i);\r\n            }\r\n        }\r\n    }\r\n\r\n    function sendDistribution(uint8 _level) internal {\r\n        uint amount = levelAmountToDistribute[_level] / levelStatus[_level].usersAddress.length;\r\n        for(uint8 i = 0; i < levelStatus[_level].usersAddress.length; i++) {\r\n            address receiver = levelStatus[_level].usersAddress[i];\r\n            if (!address(uint160(receiver)).send(amount)) {\r\n                return address(uint160(receiver)).transfer(amount);\r\n            }\r\n            levelStatus[i].balance -= amount;\r\n            emit UserEarned(receiver, levelStatus[_level].usersIds[receiver], _level, amount);\r\n        }\r\n    }\r\n}\r\n",
  "sourcePath": "D:/Work/Projects/bios techology/smart-lotto/smart-lotto-tron/tron/contracts/CareerPlan.sol",
  "compiler": {
    "name": "solc",
    "version": "0.5.10+commit.a1d534ef.Emscripten.clang"
  },
  "schemaVersion": "2.0.1",
  "updatedAt": "2020-09-10T20:19:03.484Z"
}