{
  "contractName": "CareerPlan",
  "abi": [
    {
      "constant": true,
      "inputs": [
        {
          "name": "",
          "type": "uint8"
        }
      ],
      "name": "levelAmountToDistribute",
      "outputs": [
        {
          "name": "",
          "type": "uint256"
        }
      ],
      "payable": false,
      "stateMutability": "view",
      "type": "function"
    },
    {
      "constant": true,
      "inputs": [
        {
          "name": "",
          "type": "uint8"
        }
      ],
      "name": "levelStatus",
      "outputs": [
        {
          "name": "balance",
          "type": "uint256"
        }
      ],
      "payable": false,
      "stateMutability": "view",
      "type": "function"
    },
    {
      "inputs": [],
      "payable": false,
      "stateMutability": "nonpayable",
      "type": "constructor"
    },
    {
      "anonymous": false,
      "inputs": [
        {
          "indexed": true,
          "name": "_user",
          "type": "address"
        },
        {
          "indexed": true,
          "name": "_userId",
          "type": "uint256"
        },
        {
          "indexed": true,
          "name": "_level",
          "type": "uint8"
        }
      ],
      "name": "UserUpgradeLevel",
      "type": "event"
    },
    {
      "anonymous": false,
      "inputs": [
        {
          "indexed": true,
          "name": "_user",
          "type": "address"
        },
        {
          "indexed": true,
          "name": "_userId",
          "type": "uint256"
        },
        {
          "indexed": true,
          "name": "_level",
          "type": "uint8"
        },
        {
          "indexed": false,
          "name": "_amount",
          "type": "uint256"
        }
      ],
      "name": "UserEarned",
      "type": "event"
    },
    {
      "constant": false,
      "inputs": [
        {
          "name": "_adr",
          "type": "address"
        }
      ],
      "name": "setSmartLottoAddress",
      "outputs": [],
      "payable": false,
      "stateMutability": "nonpayable",
      "type": "function"
    },
    {
      "constant": false,
      "inputs": [],
      "name": "addToBalance",
      "outputs": [],
      "payable": true,
      "stateMutability": "payable",
      "type": "function"
    },
    {
      "constant": false,
      "inputs": [
        {
          "name": "_user",
          "type": "address"
        },
        {
          "name": "_id",
          "type": "uint256"
        },
        {
          "name": "_level",
          "type": "uint8"
        }
      ],
      "name": "addUserToLevel",
      "outputs": [],
      "payable": false,
      "stateMutability": "nonpayable",
      "type": "function"
    }
  ],
  "bytecode": "0x608060405234801561001057600080fd5b50d3801561001d57600080fd5b50d2801561002a57600080fd5b50336000806101000a81548173ffffffffffffffffffffffffffffffffffffffff021916908373ffffffffffffffffffffffffffffffffffffffff16021790555064f34748b44060036000600160ff168152602001908152602001600020819055506504f10c6b7b8060036000600260ff16815260200190815260200160002081905550650980c92355c060036000600360ff16815260200190815260200160002081905550651e68ea0aac0060036000600460ff16815260200190815260200160002081905550654c06491aae0060036000600560ff16815260200190815260200160002081905550610aa4806101236000396000f3fe60806040526004361061004a5760003560e01c80634c3846381461004f5780637db5bba4146100bb578063a1fb0fd314610126578063b2988c87146101a8578063c0e317fb14610214575b600080fd5b34801561005b57600080fd5b50d3801561006857600080fd5b50d2801561007557600080fd5b506100a56004803603602081101561008c57600080fd5b81019080803560ff16906020019092919050505061021e565b6040518082815260200191505060405180910390f35b3480156100c757600080fd5b50d380156100d457600080fd5b50d280156100e157600080fd5b50610124600480360360208110156100f857600080fd5b81019080803573ffffffffffffffffffffffffffffffffffffffff169060200190929190505050610236565b005b34801561013257600080fd5b50d3801561013f57600080fd5b50d2801561014c57600080fd5b506101a66004803603606081101561016357600080fd5b81019080803573ffffffffffffffffffffffffffffffffffffffff16906020019092919080359060200190929190803560ff16906020019092919050505061033d565b005b3480156101b457600080fd5b50d380156101c157600080fd5b50d280156101ce57600080fd5b506101fe600480360360208110156101e557600080fd5b81019080803560ff1690602001909291905050506106c7565b6040518082815260200191505060405180910390f35b61021c6106e5565b005b60036020528060005260406000206000915090505481565b3373ffffffffffffffffffffffffffffffffffffffff16600160009054906101000a900473ffffffffffffffffffffffffffffffffffffffff1673ffffffffffffffffffffffffffffffffffffffff16146102f9576040517f08c379a000000000000000000000000000000000000000000000000000000000815260040180806020018281038252600a8152602001807f726573747269637465640000000000000000000000000000000000000000000081525060200191505060405180910390fd5b80600160006101000a81548173ffffffffffffffffffffffffffffffffffffffff021916908373ffffffffffffffffffffffffffffffffffffffff16021790555050565b600073ffffffffffffffffffffffffffffffffffffffff16600160009054906101000a900473ffffffffffffffffffffffffffffffffffffffff1673ffffffffffffffffffffffffffffffffffffffff161415610402576040517f08c379a000000000000000000000000000000000000000000000000000000000815260040180806020018281038252601b8152602001807f726571756972656420536d6172744c6f74746f2061646472657373000000000081525060200191505060405180910390fd5b3373ffffffffffffffffffffffffffffffffffffffff16600160009054906101000a900473ffffffffffffffffffffffffffffffffffffffff1673ffffffffffffffffffffffffffffffffffffffff16146104c5576040517f08c379a000000000000000000000000000000000000000000000000000000000815260040180806020018281038252600f8152602001807f6f6e6c7920536d6172744c6f74746f000000000000000000000000000000000081525060200191505060405180910390fd5b6000600260008360ff1660ff16815260200190815260200160002060020160008573ffffffffffffffffffffffffffffffffffffffff1673ffffffffffffffffffffffffffffffffffffffff1681526020019081526020016000205414610594576040517f08c379a00000000000000000000000000000000000000000000000000000000081526004018080602001828103825260128152602001807f5573657220616c7265616479206578697374000000000000000000000000000081525060200191505060405180910390fd5b81600260008360ff1660ff16815260200190815260200160002060020160008573ffffffffffffffffffffffffffffffffffffffff1673ffffffffffffffffffffffffffffffffffffffff16815260200190815260200160002081905550600260008260ff1660ff1681526020019081526020016000206001018390806001815401808255809150509060018203906000526020600020016000909192909190916101000a81548173ffffffffffffffffffffffffffffffffffffffff021916908373ffffffffffffffffffffffffffffffffffffffff1602179055505061067a6107c7565b8060ff16828473ffffffffffffffffffffffffffffffffffffffff167f43b30a28b6ee5ccf7e14b2e4681a5340c522951356b9c6d0212f2f8530f4460260405160405180910390a4505050565b60026020528060005260406000206000915090508060000154905081565b6000600534816106f157fe5b0490508060026000600160ff168152602001908152602001600020600001600082825401925050819055508060026000600260ff168152602001908152602001600020600001600082825401925050819055508060026000600360ff168152602001908152602001600020600001600082825401925050819055508060026000600460ff168152602001908152602001600020600001600082825401925050819055508060026000600560ff168152602001908152602001600020600001600082825401925050819055506107c46107c7565b50565b6000600190505b60058160ff161161082c57600360008260ff1660ff16815260200190815260200160002054600260008360ff1660ff168152602001908152602001600020600001541061081f5761081e8161082f565b5b80806001019150506107ce565b50565b6000600260008360ff1660ff16815260200190815260200160002060010180549050600360008460ff1660ff168152602001908152602001600020548161087257fe5b04905060008090505b600260008460ff1660ff168152602001908152602001600020600101805490508160ff161015610a6a576000600260008560ff1660ff1681526020019081526020016000206001018260ff16815481106108d157fe5b9060005260206000200160009054906101000a900473ffffffffffffffffffffffffffffffffffffffff1690508073ffffffffffffffffffffffffffffffffffffffff166108fc849081150290604051600060405180830381858888f19350505050610986578073ffffffffffffffffffffffffffffffffffffffff166108fc849081150290604051600060405180830381858888f1935050505015801561097d573d6000803e3d6000fd5b50505050610a6d565b82600260008460ff1660ff168152602001908152602001600020600001600082825403925050819055508360ff16600260008660ff1660ff16815260200190815260200160002060020160008373ffffffffffffffffffffffffffffffffffffffff1673ffffffffffffffffffffffffffffffffffffffff168152602001908152602001600020548273ffffffffffffffffffffffffffffffffffffffff167fefb0ae9b2af1246226970dff70936ce66754dde83e56e531a0b1ffb766a26137866040518082815260200191505060405180910390a450808060010191505061087b565b50505b5056fea26474726f6e58205368868b22cd0694c4fb54ba2e4ac559d3a0ecfbf6f4a335bf82dcfa5a5839c564736f6c634300050a0031",
  "source": "pragma solidity ^0.5.10;\r\n\r\ncontract CareerPlan {\r\n    address owner;\r\n    address smartLotto;\r\n\r\n    struct LevelStatus {\r\n        uint balance;\r\n        address[] usersAddress;\r\n        mapping(address => uint) usersIds;\r\n    }\r\n\r\n    mapping(uint8 => LevelStatus) public levelStatus;\r\n    mapping(uint8 => uint) public levelAmountToDistribute;\r\n\r\n    modifier onlySmartLotto () {\r\n        require(smartLotto != address(0), 'required SmartLotto address');\r\n        require(smartLotto == msg.sender, 'only SmartLotto');\r\n        _;\r\n    }\r\n\r\n    modifier restricted () {\r\n        require(smartLotto == msg.sender, 'restricted');\r\n        _;\r\n    }\r\n\r\n    event UserUpgradeLevel(address indexed _user, uint indexed _userId, uint8 indexed _level);\r\n    event UserEarned(address indexed _user, uint indexed _userId, uint8 indexed _level, uint _amount);\r\n\r\n    constructor() public {\r\n        owner = msg.sender;\r\n        levelAmountToDistribute[1] = 1044873 * 1e6;\r\n        levelAmountToDistribute[2] = 5433342 * 1e6;\r\n        levelAmountToDistribute[3] = 10448735 * 1e6;\r\n        levelAmountToDistribute[4] = 33435952 * 1e6;\r\n        levelAmountToDistribute[5] = 83589880 * 1e6;\r\n    }\r\n\r\n    function setSmartLottoAddress(address _adr) external restricted {\r\n        smartLotto = _adr;\r\n    }\r\n\r\n    function addToBalance() external payable {\r\n        uint amount = msg.value / 5;\r\n        levelStatus[1].balance += amount;\r\n        levelStatus[2].balance += amount;\r\n        levelStatus[3].balance += amount;\r\n        levelStatus[4].balance += amount;\r\n        levelStatus[5].balance += amount;\r\n        applyDistribution();\r\n    }\r\n\r\n    function addUserToLevel(address _user, uint _id, uint8 _level) external onlySmartLotto {\r\n        require(levelStatus[_level].usersIds[_user] == 0, 'User already exist');\r\n        levelStatus[_level].usersIds[_user] = _id;\r\n        levelStatus[_level].usersAddress.push(_user);\r\n        applyDistribution();\r\n        emit UserUpgradeLevel(_user, _id, _level);\r\n    }\r\n\r\n    function applyDistribution() internal {\r\n        for(uint8 i = 1; i <= 5; i++) {\r\n            if(levelStatus[i].balance >= levelAmountToDistribute[i]) {\r\n                sendDistribution(i);\r\n            }\r\n        }\r\n    }\r\n\r\n    function sendDistribution(uint8 _level) internal {\r\n        uint amount = levelAmountToDistribute[_level] / levelStatus[_level].usersAddress.length;\r\n        for(uint8 i = 0; i < levelStatus[_level].usersAddress.length; i++) {\r\n            address receiver = levelStatus[_level].usersAddress[i];\r\n            if (!address(uint160(receiver)).send(amount)) {\r\n                return address(uint160(receiver)).transfer(amount);\r\n            }\r\n            levelStatus[i].balance -= amount;\r\n            emit UserEarned(receiver, levelStatus[_level].usersIds[receiver], _level, amount);\r\n        }\r\n    }\r\n}\r\n",
  "sourcePath": "D:/Work/Projects/bios techology/smart-lotto/smart-lotto-tron/tron/contracts/CareerPlan.sol",
  "compiler": {
    "name": "solc",
    "version": "0.5.10+commit.a1d534ef.Emscripten.clang"
  },
  "schemaVersion": "2.0.1",
  "updatedAt": "2020-09-01T00:01:37.340Z"
}