{
  "contractName": "Lotto",
  "abi": [
    {
      "constant": true,
      "inputs": [
        {
          "name": "",
          "type": "uint256"
        }
      ],
      "name": "users",
      "outputs": [
        {
          "name": "",
          "type": "address"
        }
      ],
      "payable": false,
      "stateMutability": "view",
      "type": "function"
    },
    {
      "constant": true,
      "inputs": [],
      "name": "countUsers",
      "outputs": [
        {
          "name": "",
          "type": "uint256"
        }
      ],
      "payable": false,
      "stateMutability": "view",
      "type": "function"
    },
    {
      "inputs": [],
      "payable": false,
      "stateMutability": "nonpayable",
      "type": "constructor"
    },
    {
      "anonymous": false,
      "inputs": [
        {
          "indexed": true,
          "name": "user",
          "type": "address"
        }
      ],
      "name": "UserWonLotteryEvent",
      "type": "event"
    },
    {
      "constant": false,
      "inputs": [
        {
          "name": "contractAddress",
          "type": "address"
        }
      ],
      "name": "setSmartLottoAddress",
      "outputs": [],
      "payable": false,
      "stateMutability": "nonpayable",
      "type": "function"
    },
    {
      "constant": true,
      "inputs": [],
      "name": "getBalance",
      "outputs": [
        {
          "name": "",
          "type": "uint256"
        }
      ],
      "payable": false,
      "stateMutability": "view",
      "type": "function"
    },
    {
      "constant": false,
      "inputs": [
        {
          "name": "user",
          "type": "address"
        }
      ],
      "name": "addUser",
      "outputs": [],
      "payable": false,
      "stateMutability": "nonpayable",
      "type": "function"
    },
    {
      "constant": false,
      "inputs": [],
      "name": "addToRaffle",
      "outputs": [],
      "payable": true,
      "stateMutability": "payable",
      "type": "function"
    }
  ],
  "bytecode": "0x608060405264037e11d60060065534801561001957600080fd5b50d3801561002657600080fd5b50d2801561003357600080fd5b5033600260006101000a81548173ffffffffffffffffffffffffffffffffffffffff021916908373ffffffffffffffffffffffffffffffffffffffff1602179055506108a8806100846000396000f3fe6080604052600436106100555760003560e01c806312065fe01461005a578063365b98b21461009f578063421b2d8b146101345780637db5bba41461019f578063d286f9901461020a578063f8fb1d0f14610214575b600080fd5b34801561006657600080fd5b50d3801561007357600080fd5b50d2801561008057600080fd5b50610089610259565b6040518082815260200191505060405180910390f35b3480156100ab57600080fd5b50d380156100b857600080fd5b50d280156100c557600080fd5b506100f2600480360360208110156100dc57600080fd5b8101908080359060200190929190505050610278565b604051808273ffffffffffffffffffffffffffffffffffffffff1673ffffffffffffffffffffffffffffffffffffffff16815260200191505060405180910390f35b34801561014057600080fd5b50d3801561014d57600080fd5b50d2801561015a57600080fd5b5061019d6004803603602081101561017157600080fd5b81019080803573ffffffffffffffffffffffffffffffffffffffff1690602001909291905050506102ab565b005b3480156101ab57600080fd5b50d380156101b857600080fd5b50d280156101c557600080fd5b50610208600480360360208110156101dc57600080fd5b81019080803573ffffffffffffffffffffffffffffffffffffffff1690602001909291905050506104a4565b005b6102126105ab565b005b34801561022057600080fd5b50d3801561022d57600080fd5b50d2801561023a57600080fd5b506102436105c0565b6040518082815260200191505060405180910390f35b60003073ffffffffffffffffffffffffffffffffffffffff1631905090565b60046020528060005260406000206000915054906101000a900473ffffffffffffffffffffffffffffffffffffffff1681565b600073ffffffffffffffffffffffffffffffffffffffff16600360009054906101000a900473ffffffffffffffffffffffffffffffffffffffff1673ffffffffffffffffffffffffffffffffffffffff161415610370576040517f08c379a000000000000000000000000000000000000000000000000000000000815260040180806020018281038252601b8152602001807f536d6172744c6f74746f206164647265737320697320656d707479000000000081525060200191505060405180910390fd5b600360009054906101000a900473ffffffffffffffffffffffffffffffffffffffff1673ffffffffffffffffffffffffffffffffffffffff163373ffffffffffffffffffffffffffffffffffffffff1614610433576040517f08c379a000000000000000000000000000000000000000000000000000000000815260040180806020018281038252600f8152602001807f4f6e6c7920536d6172744c6f74746f000000000000000000000000000000000081525060200191505060405180910390fd5b6005600081548092919060010191905055508060046000600554815260200190815260200160002060006101000a81548173ffffffffffffffffffffffffffffffffffffffff021916908373ffffffffffffffffffffffffffffffffffffffff1602179055506104a16105c6565b50565b600260009054906101000a900473ffffffffffffffffffffffffffffffffffffffff1673ffffffffffffffffffffffffffffffffffffffff163373ffffffffffffffffffffffffffffffffffffffff1614610567576040517f08c379a000000000000000000000000000000000000000000000000000000000815260040180806020018281038252600a8152602001807f726573747269637465640000000000000000000000000000000000000000000081525060200191505060405180910390fd5b80600360006101000a81548173ffffffffffffffffffffffffffffffffffffffff021916908373ffffffffffffffffffffffffffffffffffffffff16021790555050565b6000600554146105be576105bd6105c6565b5b565b60055481565b5b6006543073ffffffffffffffffffffffffffffffffffffffff163111156107c657600060016105f46107c8565b019050600073ffffffffffffffffffffffffffffffffffffffff166004600083815260200190815260200160002060009054906101000a900473ffffffffffffffffffffffffffffffffffffffff1673ffffffffffffffffffffffffffffffffffffffff16146107c0576004600082815260200190815260200160002060009054906101000a900473ffffffffffffffffffffffffffffffffffffffff1673ffffffffffffffffffffffffffffffffffffffff166108fc6006549081150290604051600060405180830381858888f19350505050610749576004600082815260200190815260200160002060009054906101000a900473ffffffffffffffffffffffffffffffffffffffff1673ffffffffffffffffffffffffffffffffffffffff166108fc6006549081150290604051600060405180830381858888f19350505050158015610747573d6000803e3d6000fd5b505b6004600082815260200190815260200160002060009054906101000a900473ffffffffffffffffffffffffffffffffffffffff1673ffffffffffffffffffffffffffffffffffffffff167fde84bcc28d5bd9059ae906a8486fe3a31dbe4886dadd22dd145a784bf1b8ee4360405160405180910390a25b506105c7565b565b600080600554600054600154424433604051602001808681526020018581526020018481526020018381526020018273ffffffffffffffffffffffffffffffffffffffff1673ffffffffffffffffffffffffffffffffffffffff1660601b8152601401955050505050506040516020818303038152906040528051906020012060001c8161085257fe5b069050600080815480929190600101919050555080600181905550809150509056fea26474726f6e5820384ec7a5a67560e850a5d6d420ebd09c362a4c5396b2e5c17bf4c3fd0d61689364736f6c634300050a0031",
  "source": "pragma solidity ^0.5.10;\r\n\r\ncontract Lotto {\r\n    uint nonce;\r\n    uint lastRand;\r\n    address admin;\r\n    address smartLotto;\r\n    mapping(uint=>address) public users;\r\n    uint public countUsers;\r\n\r\n    uint amount = 15000 * 1e6;\r\n\r\n    event UserWonLotteryEvent(address indexed user);\r\n\r\n    modifier restricted() {\r\n        require(msg.sender == admin, \"restricted\");\r\n        _;\r\n    }\r\n\r\n    modifier onlySmartLotto() {\r\n        require(smartLotto != address(0), \"SmartLotto address is empty\");\r\n        require(msg.sender == smartLotto, \"Only SmartLotto\");\r\n        _;\r\n    }\r\n\r\n    constructor() public {\r\n        admin = msg.sender;\r\n    }\r\n\r\n    function setSmartLottoAddress(address contractAddress) external restricted {\r\n        smartLotto = contractAddress;\r\n    }\r\n\r\n    // todo: clean\r\n    function getBalance() external view returns(uint) {\r\n        return address(this).balance;\r\n    }\r\n\r\n    function getRandom() internal returns(uint) {\r\n        uint rand = uint(keccak256(abi.encodePacked(\r\n            nonce,\r\n            lastRand,\r\n            now,\r\n            block.difficulty,\r\n            msg.sender)\r\n        )) % countUsers;\r\n        nonce++;\r\n        lastRand = rand;\r\n        return rand;\r\n    }\r\n\r\n    function addUser(address user) external onlySmartLotto {\r\n        countUsers++;\r\n        users[countUsers] = user;\r\n        applyLottery();\r\n    }\r\n\r\n    function addToRaffle() external payable {\r\n        if(countUsers != 0) {\r\n            applyLottery();\r\n        }\r\n    }\r\n\r\n    function applyLottery() internal {\r\n        while(address(this).balance > amount) {\r\n            uint id = getRandom() + 1;\r\n            if(users[id] != address(0)) {\r\n                if(!address(uint160(users[id])).send(amount))\r\n                    address(uint160(users[id])).transfer(amount);\r\n                emit UserWonLotteryEvent(users[id]);\r\n            }\r\n        }\r\n    }\r\n}\r\n",
  "sourcePath": "D:/Work/Projects/bios techology/smart-lotto/smart-lotto-tron/tron/contracts/Lotto.sol",
  "compiler": {
    "name": "solc",
    "version": "0.5.10+commit.a1d534ef.Emscripten.clang"
  },
  "schemaVersion": "2.0.1",
  "updatedAt": "2020-09-01T00:01:37.337Z"
}