{
  "contractName": "SmartLotto",
  "abi": [
    {
      "constant": true,
      "inputs": [
        {
          "name": "",
          "type": "uint8"
        }
      ],
      "name": "boxes70PtgValues",
      "outputs": [
        {
          "name": "",
          "type": "uint256"
        }
      ],
      "payable": false,
      "stateMutability": "view",
      "type": "function"
    },
    {
      "constant": true,
      "inputs": [
        {
          "name": "",
          "type": "uint256"
        }
      ],
      "name": "idLookup",
      "outputs": [
        {
          "name": "",
          "type": "address"
        }
      ],
      "payable": false,
      "stateMutability": "view",
      "type": "function"
    },
    {
      "constant": true,
      "inputs": [
        {
          "name": "",
          "type": "uint8"
        }
      ],
      "name": "boxesPlanValues",
      "outputs": [
        {
          "name": "",
          "type": "uint256"
        }
      ],
      "payable": false,
      "stateMutability": "view",
      "type": "function"
    },
    {
      "constant": true,
      "inputs": [
        {
          "name": "",
          "type": "address"
        }
      ],
      "name": "users",
      "outputs": [
        {
          "name": "id",
          "type": "uint256"
        },
        {
          "name": "partnersCount",
          "type": "uint256"
        },
        {
          "name": "sponsor",
          "type": "address"
        },
        {
          "name": "levelCareerPlan",
          "type": "uint8"
        },
        {
          "name": "activeInLottery",
          "type": "bool"
        }
      ],
      "payable": false,
      "stateMutability": "view",
      "type": "function"
    },
    {
      "constant": true,
      "inputs": [
        {
          "name": "",
          "type": "uint8"
        }
      ],
      "name": "boxesValues",
      "outputs": [
        {
          "name": "",
          "type": "uint256"
        }
      ],
      "payable": false,
      "stateMutability": "view",
      "type": "function"
    },
    {
      "constant": true,
      "inputs": [
        {
          "name": "",
          "type": "uint8"
        }
      ],
      "name": "boxesExternalValues",
      "outputs": [
        {
          "name": "",
          "type": "uint256"
        }
      ],
      "payable": false,
      "stateMutability": "view",
      "type": "function"
    },
    {
      "inputs": [
        {
          "name": "_externalAddress",
          "type": "address"
        },
        {
          "name": "_careerPlanAddress",
          "type": "address"
        },
        {
          "name": "_lotteryAddress",
          "type": "address"
        },
        {
          "name": "_externalFeeAddress",
          "type": "address"
        }
      ],
      "payable": false,
      "stateMutability": "nonpayable",
      "type": "constructor"
    },
    {
      "payable": true,
      "stateMutability": "payable",
      "type": "fallback"
    },
    {
      "anonymous": false,
      "inputs": [
        {
          "indexed": true,
          "name": "_newUser",
          "type": "address"
        },
        {
          "indexed": true,
          "name": "_userId",
          "type": "uint256"
        },
        {
          "indexed": true,
          "name": "_sponsor",
          "type": "address"
        },
        {
          "indexed": false,
          "name": "_sponsorId",
          "type": "uint256"
        }
      ],
      "name": "SignUpEvent",
      "type": "event"
    },
    {
      "anonymous": false,
      "inputs": [
        {
          "indexed": true,
          "name": "_user",
          "type": "address"
        },
        {
          "indexed": true,
          "name": "_sponsor",
          "type": "address"
        },
        {
          "indexed": false,
          "name": "_box",
          "type": "uint8"
        },
        {
          "indexed": false,
          "name": "_isSmartDirect",
          "type": "bool"
        },
        {
          "indexed": false,
          "name": "_position",
          "type": "uint8"
        }
      ],
      "name": "NewUserChildEvent",
      "type": "event"
    },
    {
      "anonymous": false,
      "inputs": [
        {
          "indexed": true,
          "name": "_user",
          "type": "address"
        },
        {
          "indexed": true,
          "name": "currentSponsor",
          "type": "address"
        },
        {
          "indexed": true,
          "name": "addrCaller",
          "type": "address"
        },
        {
          "indexed": false,
          "name": "_box",
          "type": "uint8"
        },
        {
          "indexed": false,
          "name": "_isSmartDirect",
          "type": "bool"
        }
      ],
      "name": "ReinvestBoxEvent",
      "type": "event"
    },
    {
      "anonymous": false,
      "inputs": [
        {
          "indexed": true,
          "name": "_from",
          "type": "address"
        },
        {
          "indexed": true,
          "name": "_to",
          "type": "address"
        },
        {
          "indexed": false,
          "name": "_box",
          "type": "uint8"
        },
        {
          "indexed": false,
          "name": "_isSmartDirect",
          "type": "bool"
        }
      ],
      "name": "MissedEvent",
      "type": "event"
    },
    {
      "anonymous": false,
      "inputs": [
        {
          "indexed": true,
          "name": "_from",
          "type": "address"
        },
        {
          "indexed": true,
          "name": "_to",
          "type": "address"
        },
        {
          "indexed": false,
          "name": "_box",
          "type": "uint8"
        },
        {
          "indexed": false,
          "name": "_isSmartDirect",
          "type": "bool"
        }
      ],
      "name": "SentExtraEvent",
      "type": "event"
    },
    {
      "anonymous": false,
      "inputs": [
        {
          "indexed": true,
          "name": "_user",
          "type": "address"
        },
        {
          "indexed": true,
          "name": "_sponsor",
          "type": "address"
        },
        {
          "indexed": false,
          "name": "_box",
          "type": "uint8"
        },
        {
          "indexed": false,
          "name": "_isSmartDirect",
          "type": "bool"
        }
      ],
      "name": "UpgradeStatusEvent",
      "type": "event"
    },
    {
      "constant": false,
      "inputs": [
        {
          "name": "sponsor",
          "type": "address"
        }
      ],
      "name": "signUp",
      "outputs": [],
      "payable": true,
      "stateMutability": "payable",
      "type": "function"
    },
    {
      "constant": false,
      "inputs": [
        {
          "name": "_matrix",
          "type": "uint8"
        },
        {
          "name": "_box",
          "type": "uint8"
        }
      ],
      "name": "buyNewBox",
      "outputs": [],
      "payable": true,
      "stateMutability": "payable",
      "type": "function"
    },
    {
      "constant": true,
      "inputs": [
        {
          "name": "_user",
          "type": "address"
        },
        {
          "name": "_box",
          "type": "uint8"
        }
      ],
      "name": "userSmartDirectBoxInfo",
      "outputs": [
        {
          "name": "",
          "type": "bool"
        },
        {
          "name": "",
          "type": "bool"
        },
        {
          "name": "",
          "type": "uint256"
        },
        {
          "name": "",
          "type": "address[]"
        },
        {
          "name": "",
          "type": "address"
        }
      ],
      "payable": false,
      "stateMutability": "view",
      "type": "function"
    },
    {
      "constant": true,
      "inputs": [
        {
          "name": "_user",
          "type": "address"
        },
        {
          "name": "_box",
          "type": "uint8"
        }
      ],
      "name": "userSmartTeamBoxInfo",
      "outputs": [
        {
          "name": "",
          "type": "bool"
        },
        {
          "name": "",
          "type": "bool"
        },
        {
          "name": "",
          "type": "uint256"
        },
        {
          "name": "",
          "type": "address"
        },
        {
          "name": "",
          "type": "address[]"
        },
        {
          "name": "",
          "type": "address[]"
        },
        {
          "name": "",
          "type": "address"
        }
      ],
      "payable": false,
      "stateMutability": "view",
      "type": "function"
    },
    {
      "constant": true,
      "inputs": [
        {
          "name": "_user",
          "type": "address"
        }
      ],
      "name": "isValidUser",
      "outputs": [
        {
          "name": "",
          "type": "bool"
        }
      ],
      "payable": false,
      "stateMutability": "view",
      "type": "function"
    }
  ],
  "bytecode": "0x608060405260016000553480156200001657600080fd5b50d380156200002457600080fd5b50d280156200003257600080fd5b506040516200523738038062005237833981810160405260808110156200005857600080fd5b810190808051906020019092919080519060200190929190805190602001909291908051906020019092919050505083600160006101000a81548173ffffffffffffffffffffffffffffffffffffffff021916908373ffffffffffffffffffffffffffffffffffffffff16021790555080600260006101000a81548173ffffffffffffffffffffffffffffffffffffffff021916908373ffffffffffffffffffffffffffffffffffffffff16021790555081600760006101000a81548173ffffffffffffffffffffffffffffffffffffffff021916908373ffffffffffffffffffffffffffffffffffffffff1602179055506200015b83620003c360201b60201c565b600060036000600160009054906101000a900473ffffffffffffffffffffffffffffffffffffffff1673ffffffffffffffffffffffffffffffffffffffff1673ffffffffffffffffffffffffffffffffffffffff1681526020019081526020016000209050600080815480929190600101919050558160000181905550600160009054906101000a900473ffffffffffffffffffffffffffffffffffffffff16600460008360000154815260200190815260200160002060006101000a81548173ffffffffffffffffffffffffffffffffffffffff021916908373ffffffffffffffffffffffffffffffffffffffff1602179055506000600190505b600e8160ff1611620003b7576001810360ff1660020a60ff16630ee6b2800263ffffffff16600860008360ff1660ff168152602001908152602001600020819055506001810360ff1660020a60ff16630a6e49c00263ffffffff16600960008360ff1660ff168152602001908152602001600020819055506001810360ff1660020a60ff1663032116200263ffffffff16600a60008360ff1660ff168152602001908152602001600020819055506001810360ff1660020a60ff1663015752a00263ffffffff16600b60008360ff1660ff1681526020019081526020016000208190555060018260020160008360ff1660ff16815260200190815260200160002060000160006101000a81548160ff02191690831515021790555060018260030160008360ff1660ff16815260200190815260200160002060000160006101000a81548160ff021916908315150217905550808060010191505062000257565b50505050505062000546565b80600560006101000a81548173ffffffffffffffffffffffffffffffffffffffff021916908373ffffffffffffffffffffffffffffffffffffffff160217905550600a60066000600160ff16815260200190815260200160002060010181905550600360066000600160ff16815260200190815260200160002060000181905550601460066000600260ff168152602001908152602001600020600101819055506006806000600260ff16815260200190815260200160002060000181905550601e60066000600360ff16815260200190815260200160002060010181905550600960066000600360ff16815260200190815260200160002060000181905550602860066000600460ff16815260200190815260200160002060010181905550600c60066000600460ff16815260200190815260200160002060000181905550603c60066000600560ff16815260200190815260200160002060010181905550600e60066000600560ff1681526020019081526020016000206000018190555050565b614ce180620005566000396000f3fe60806040526004361061009c5760003560e01c80637a087ea6116100645780637a087ea61461052f578063a87430ba1461059b578063cb9429b51461066c578063ef1d60a1146106b0578063f3c95c601461071c578063fd7523521461079f5761009c565b806315c9505e1461013b578063291f73a7146101a757806348b812dc1461023c5780634f27ac30146103d45780635a4c4dbd146104f1575b60008036905014156100d9576100d433600160009054906101000a900473ffffffffffffffffffffffffffffffffffffffff1661080b565b610139565b600060606000368080601f016020809104026020016040519081016040528093929190818152602001838380828437600081840152601f19601f82011690508083019250505050505050905060148101519150610136338361080b565b50505b005b34801561014757600080fd5b50d3801561015457600080fd5b50d2801561016157600080fd5b506101916004803603602081101561017857600080fd5b81019080803560ff169060200190929190505050610e07565b6040518082815260200191505060405180910390f35b3480156101b357600080fd5b50d380156101c057600080fd5b50d280156101cd57600080fd5b506101fa600480360360208110156101e457600080fd5b8101908080359060200190929190505050610e1f565b604051808273ffffffffffffffffffffffffffffffffffffffff1673ffffffffffffffffffffffffffffffffffffffff16815260200191505060405180910390f35b34801561024857600080fd5b50d3801561025557600080fd5b50d2801561026257600080fd5b506102b26004803603604081101561027957600080fd5b81019080803573ffffffffffffffffffffffffffffffffffffffff169060200190929190803560ff169060200190929190505050610e52565b6040518088151515158152602001871515151581526020018681526020018573ffffffffffffffffffffffffffffffffffffffff1673ffffffffffffffffffffffffffffffffffffffff16815260200180602001806020018473ffffffffffffffffffffffffffffffffffffffff1673ffffffffffffffffffffffffffffffffffffffff168152602001838103835286818151815260200191508051906020019060200280838360005b8381101561037757808201518184015260208101905061035c565b50505050905001838103825285818151815260200191508051906020019060200280838360005b838110156103b957808201518184015260208101905061039e565b50505050905001995050505050505050505060405180910390f35b3480156103e057600080fd5b50d380156103ed57600080fd5b50d280156103fa57600080fd5b5061044a6004803603604081101561041157600080fd5b81019080803573ffffffffffffffffffffffffffffffffffffffff169060200190929190803560ff169060200190929190505050611122565b604051808615151515815260200185151515158152602001848152602001806020018373ffffffffffffffffffffffffffffffffffffffff1673ffffffffffffffffffffffffffffffffffffffff168152602001828103825284818151815260200191508051906020019060200280838360005b838110156104d95780820151818401526020810190506104be565b50505050905001965050505050505060405180910390f35b61052d6004803603604081101561050757600080fd5b81019080803560ff169060200190929190803560ff1690602001909291905050506112f8565b005b34801561053b57600080fd5b50d3801561054857600080fd5b50d2801561055557600080fd5b506105856004803603602081101561056c57600080fd5b81019080803560ff16906020019092919050505061205f565b6040518082815260200191505060405180910390f35b3480156105a757600080fd5b50d380156105b457600080fd5b50d280156105c157600080fd5b50610604600480360360208110156105d857600080fd5b81019080803573ffffffffffffffffffffffffffffffffffffffff169060200190929190505050612077565b604051808681526020018581526020018473ffffffffffffffffffffffffffffffffffffffff1673ffffffffffffffffffffffffffffffffffffffff1681526020018360ff1660ff168152602001821515151581526020019550505050505060405180910390f35b6106ae6004803603602081101561068257600080fd5b81019080803573ffffffffffffffffffffffffffffffffffffffff1690602001909291905050506120e7565b005b3480156106bc57600080fd5b50d380156106c957600080fd5b50d280156106d657600080fd5b50610706600480360360208110156106ed57600080fd5b81019080803560ff1690602001909291905050506120f4565b6040518082815260200191505060405180910390f35b34801561072857600080fd5b50d3801561073557600080fd5b50d2801561074257600080fd5b506107856004803603602081101561075957600080fd5b81019080803573ffffffffffffffffffffffffffffffffffffffff16906020019092919050505061210c565b604051808215151515815260200191505060405180910390f35b3480156107ab57600080fd5b50d380156107b857600080fd5b50d280156107c557600080fd5b506107f5600480360360208110156107dc57600080fd5b81019080803560ff16906020019092919050505061215b565b6040518082815260200191505060405180910390f35b806000600360008373ffffffffffffffffffffffffffffffffffffffff1673ffffffffffffffffffffffffffffffffffffffff1681526020019081526020016000206000015414156108c5576040517f08c379a000000000000000000000000000000000000000000000000000000000815260040180806020018281038252601c8152602001807f546869732073706f6e736f7220646f6573206e6f74206578697374730000000081525060200191505060405180910390fd5b826000813b905060008163ffffffff161461092b576040517f08c379a0000000000000000000000000000000000000000000000000000000008152600401808060200182810382526021815260200180614c686021913960400191505060405180910390fd5b6000600360008473ffffffffffffffffffffffffffffffffffffffff1673ffffffffffffffffffffffffffffffffffffffff16815260200190815260200160002060000154146109e3576040517f08c379a00000000000000000000000000000000000000000000000000000000081526004018080602001828103825260188152602001807f54686973207573657220616c726561647920657869737473000000000000000081525060200191505060405180910390fd5b631dcd65003414610a5c576040517f08c379a000000000000000000000000000000000000000000000000000000000815260040180806020018281038252601c8152602001807f506c6561736520656e74657220726571756972656420616d6f756e740000000081525060200191505060405180910390fd5b6000600360008773ffffffffffffffffffffffffffffffffffffffff1673ffffffffffffffffffffffffffffffffffffffff1681526020019081526020016000209050600080815480929190600101919050558160000181905550848160040160006101000a81548173ffffffffffffffffffffffffffffffffffffffff021916908373ffffffffffffffffffffffffffffffffffffffff1602179055506001816002016000600160ff16815260200190815260200160002060000160006101000a81548160ff0219169083151502179055506001816003016000600160ff16815260200190815260200160002060000160006101000a81548160ff02191690831515021790555085600460008360000154815260200190815260200160002060006101000a81548173ffffffffffffffffffffffffffffffffffffffff021916908373ffffffffffffffffffffffffffffffffffffffff160217905550600360008673ffffffffffffffffffffffffffffffffffffffff1673ffffffffffffffffffffffffffffffffffffffff16815260200190815260200160002060010160008154809291906001019190505550600360008673ffffffffffffffffffffffffffffffffffffffff1673ffffffffffffffffffffffffffffffffffffffff1681526020019081526020016000206002016000600160ff16815260200190815260200160002060040160008154809291906001019190505550600360008673ffffffffffffffffffffffffffffffffffffffff1673ffffffffffffffffffffffffffffffffffffffff1681526020019081526020016000206003016000600160ff1681526020019081526020016000206006016000815480929190600101919050555084816002016000600160ff16815260200190815260200160002060030160006101000a81548173ffffffffffffffffffffffffffffffffffffffff021916908373ffffffffffffffffffffffffffffffffffffffff160217905550610d4785876001612173565b610d5385876001612685565b8473ffffffffffffffffffffffffffffffffffffffff1681600001548773ffffffffffffffffffffffffffffffffffffffff167f3a707e23f197b52db6816c0b2866103fb96cbf17f35d1d3ae7aecf15c620f396600360008a73ffffffffffffffffffffffffffffffffffffffff1673ffffffffffffffffffffffffffffffffffffffff168152602001908152602001600020600001546040518082815260200191505060405180910390a4505050505050565b60096020528060005260406000206000915090505481565b60046020528060005260406000206000915054906101000a900473ffffffffffffffffffffffffffffffffffffffff1681565b6000806000806060806000610e65614a71565b600360008b73ffffffffffffffffffffffffffffffffffffffff1673ffffffffffffffffffffffffffffffffffffffff16815260200190815260200160002060030160008a60ff1660ff168152602001908152602001600020604051806101000160405290816000820160009054906101000a900460ff161515151581526020016000820160019054906101000a900460ff16151515158152602001600182015481526020016002820160009054906101000a900473ffffffffffffffffffffffffffffffffffffffff1673ffffffffffffffffffffffffffffffffffffffff1673ffffffffffffffffffffffffffffffffffffffff16815260200160038201805480602002602001604051908101604052809291908181526020018280548015610fe557602002820191906000526020600020905b8160009054906101000a900473ffffffffffffffffffffffffffffffffffffffff1673ffffffffffffffffffffffffffffffffffffffff1681526020019060010190808311610f9b575b505050505081526020016004820180548060200260200160405190810160405280929190818152602001828054801561107357602002820191906000526020600020905b8160009054906101000a900473ffffffffffffffffffffffffffffffffffffffff1673ffffffffffffffffffffffffffffffffffffffff1681526020019060010190808311611029575b505050505081526020016005820160009054906101000a900473ffffffffffffffffffffffffffffffffffffffff1673ffffffffffffffffffffffffffffffffffffffff1673ffffffffffffffffffffffffffffffffffffffff1681526020016006820154815250509050806000015181602001518260400151836060015184608001518560a001518660c0015182925081915097509750975097509750975097505092959891949750929550565b600080600060606000611133614ae6565b600360008973ffffffffffffffffffffffffffffffffffffffff1673ffffffffffffffffffffffffffffffffffffffff16815260200190815260200160002060020160008860ff1660ff1681526020019081526020016000206040518060c00160405290816000820160009054906101000a900460ff161515151581526020016000820160019054906101000a900460ff16151515158152602001600182015481526020016002820180548060200260200160405190810160405280929190818152602001828054801561125c57602002820191906000526020600020905b8160009054906101000a900473ffffffffffffffffffffffffffffffffffffffff1673ffffffffffffffffffffffffffffffffffffffff1681526020019060010190808311611212575b505050505081526020016003820160009054906101000a900473ffffffffffffffffffffffffffffffffffffffff1673ffffffffffffffffffffffffffffffffffffffff1673ffffffffffffffffffffffffffffffffffffffff16815260200160048201548152505090508060000151816020015182604001518360600151846080015181915095509550955095509550509295509295909350565b6000600360003373ffffffffffffffffffffffffffffffffffffffff1673ffffffffffffffffffffffffffffffffffffffff1681526020019081526020016000206000015414156113b1576040517f08c379a00000000000000000000000000000000000000000000000000000000081526004018080602001828103825260198152602001807f54686973207573657220646f6573206e6f74206578697374730000000000000081525060200191505060405180910390fd5b8060ff16600181101580156113c75750600e8111155b611439576040517f08c379a000000000000000000000000000000000000000000000000000000000815260040180806020018281038252600b8152602001807f496e76616c696420626f7800000000000000000000000000000000000000000081525060200191505060405180910390fd5b60018360ff16148061144e575060028360ff16145b6114c0576040517f08c379a000000000000000000000000000000000000000000000000000000000815260040180806020018281038252600e8152602001807f496e76616c6964206d617472697800000000000000000000000000000000000081525060200191505060405180910390fd5b600860008360ff1660ff16815260200190815260200160002054341461154e576040517f08c379a000000000000000000000000000000000000000000000000000000000815260040180806020018281038252601c8152602001807f506c6561736520656e74657220726571756972656420616d6f756e740000000081525060200191505060405180910390fd5b60018360ff161415611b2557600360003373ffffffffffffffffffffffffffffffffffffffff1673ffffffffffffffffffffffffffffffffffffffff16815260200190815260200160002060020160008360ff1660ff16815260200190815260200160002060000160009054906101000a900460ff1615611637576040517f08c379a000000000000000000000000000000000000000000000000000000000815260040180806020018281038252601b8152602001807f596f7520616c726561647920626f75676874207468617420626f78000000000081525060200191505060405180910390fd5b600360003373ffffffffffffffffffffffffffffffffffffffff1673ffffffffffffffffffffffffffffffffffffffff16815260200190815260200160002060020160006001840360ff1660ff16815260200190815260200160002060000160009054906101000a900460ff166116f9576040517f08c379a0000000000000000000000000000000000000000000000000000000008152600401808060200182810382526025815260200180614c896025913960400191505060405180910390fd5b6001600360003373ffffffffffffffffffffffffffffffffffffffff1673ffffffffffffffffffffffffffffffffffffffff16815260200190815260200160002060020160008460ff1660ff16815260200190815260200160002060000160006101000a81548160ff0219169083151502179055506000600360003373ffffffffffffffffffffffffffffffffffffffff1673ffffffffffffffffffffffffffffffffffffffff16815260200190815260200160002060020160006001850360ff1660ff16815260200190815260200160002060000160016101000a81548160ff02191690831515021790555060006117f433846001612f5d565b905080600360003373ffffffffffffffffffffffffffffffffffffffff1673ffffffffffffffffffffffffffffffffffffffff16815260200190815260200160002060020160008560ff1660ff16815260200190815260200160002060030160006101000a81548173ffffffffffffffffffffffffffffffffffffffff021916908373ffffffffffffffffffffffffffffffffffffffff16021790555061189c813385612173565b60036000600360003373ffffffffffffffffffffffffffffffffffffffff1673ffffffffffffffffffffffffffffffffffffffff16815260200190815260200160002060040160009054906101000a900473ffffffffffffffffffffffffffffffffffffffff1673ffffffffffffffffffffffffffffffffffffffff1673ffffffffffffffffffffffffffffffffffffffff16815260200190815260200160002060020160008460ff1660ff16815260200190815260200160002060000160009054906101000a900460ff1615611aa75760036000600360003373ffffffffffffffffffffffffffffffffffffffff1673ffffffffffffffffffffffffffffffffffffffff16815260200190815260200160002060040160009054906101000a900473ffffffffffffffffffffffffffffffffffffffff1673ffffffffffffffffffffffffffffffffffffffff1673ffffffffffffffffffffffffffffffffffffffff16815260200190815260200160002060020160008460ff1660ff16815260200190815260200160002060040160008154809291906001019190505550611aa6600360003373ffffffffffffffffffffffffffffffffffffffff1673ffffffffffffffffffffffffffffffffffffffff16815260200190815260200160002060040160009054906101000a900473ffffffffffffffffffffffffffffffffffffffff16613172565b5b8073ffffffffffffffffffffffffffffffffffffffff163373ffffffffffffffffffffffffffffffffffffffff167f85a1f4489db5186bc792d3042c21cf7e3ffd54369f0f23d9073ffee54880b201856001604051808360ff1660ff168152602001821515151581526020019250505060405180910390a350612051565b600360003373ffffffffffffffffffffffffffffffffffffffff1673ffffffffffffffffffffffffffffffffffffffff16815260200190815260200160002060030160008360ff1660ff16815260200190815260200160002060000160009054906101000a900460ff1615611c02576040517f08c379a000000000000000000000000000000000000000000000000000000000815260040180806020018281038252601b8152602001807f596f7520616c726561647920626f75676874207468617420626f78000000000081525060200191505060405180910390fd5b600360003373ffffffffffffffffffffffffffffffffffffffff1673ffffffffffffffffffffffffffffffffffffffff16815260200190815260200160002060030160006001840360ff1660ff16815260200190815260200160002060000160009054906101000a900460ff16611cc4576040517f08c379a0000000000000000000000000000000000000000000000000000000008152600401808060200182810382526025815260200180614c896025913960400191505060405180910390fd5b6001600360003373ffffffffffffffffffffffffffffffffffffffff1673ffffffffffffffffffffffffffffffffffffffff16815260200190815260200160002060030160008460ff1660ff16815260200190815260200160002060000160006101000a81548160ff0219169083151502179055506000600360003373ffffffffffffffffffffffffffffffffffffffff1673ffffffffffffffffffffffffffffffffffffffff16815260200190815260200160002060030160006001850360ff1660ff16815260200190815260200160002060000160016101000a81548160ff0219169083151502179055506000611dbf33846000612f5d565b9050611dcc813385612685565b60036000600360003373ffffffffffffffffffffffffffffffffffffffff1673ffffffffffffffffffffffffffffffffffffffff16815260200190815260200160002060040160009054906101000a900473ffffffffffffffffffffffffffffffffffffffff1673ffffffffffffffffffffffffffffffffffffffff1673ffffffffffffffffffffffffffffffffffffffff16815260200190815260200160002060030160008460ff1660ff16815260200190815260200160002060000160009054906101000a900460ff1615611fd75760036000600360003373ffffffffffffffffffffffffffffffffffffffff1673ffffffffffffffffffffffffffffffffffffffff16815260200190815260200160002060040160009054906101000a900473ffffffffffffffffffffffffffffffffffffffff1673ffffffffffffffffffffffffffffffffffffffff1673ffffffffffffffffffffffffffffffffffffffff16815260200190815260200160002060030160008460ff1660ff16815260200190815260200160002060060160008154809291906001019190505550611fd6600360003373ffffffffffffffffffffffffffffffffffffffff1673ffffffffffffffffffffffffffffffffffffffff16815260200190815260200160002060040160009054906101000a900473ffffffffffffffffffffffffffffffffffffffff16613172565b5b8073ffffffffffffffffffffffffffffffffffffffff163373ffffffffffffffffffffffffffffffffffffffff167f85a1f4489db5186bc792d3042c21cf7e3ffd54369f0f23d9073ffee54880b201856000604051808360ff1660ff168152602001821515151581526020019250505060405180910390a3505b61205a336135c0565b505050565b600b6020528060005260406000206000915090505481565b60036020528060005260406000206000915090508060000154908060010154908060040160009054906101000a900473ffffffffffffffffffffffffffffffffffffffff16908060040160149054906101000a900460ff16908060040160159054906101000a900460ff16905085565b6120f1338261080b565b50565b60086020528060005260406000206000915090505481565b600080600360008473ffffffffffffffffffffffffffffffffffffffff1673ffffffffffffffffffffffffffffffffffffffff1681526020019081526020016000206000015414159050919050565b600a6020528060005260406000206000915090505481565b600360008473ffffffffffffffffffffffffffffffffffffffff1673ffffffffffffffffffffffffffffffffffffffff16815260200190815260200160002060020160008260ff1660ff1681526020019081526020016000206002018290806001815401808255809150509060018203906000526020600020016000909192909190916101000a81548173ffffffffffffffffffffffffffffffffffffffff021916908373ffffffffffffffffffffffffffffffffffffffff160217905550506000600360008573ffffffffffffffffffffffffffffffffffffffff1673ffffffffffffffffffffffffffffffffffffffff16815260200190815260200160002060020160008360ff1660ff1681526020019081526020016000206002018054905090508373ffffffffffffffffffffffffffffffffffffffff168373ffffffffffffffffffffffffffffffffffffffff167f7709d4d8d7f0226aa6e219aa4c38c1e6438dd49d0fe365a4402d843b8327ce1384600185604051808460ff1660ff168152602001831515151581526020018260ff1660ff168152602001935050505060405180910390a360038160ff16101561233c576123368385846001613837565b50612680565b6000600360008673ffffffffffffffffffffffffffffffffffffffff1673ffffffffffffffffffffffffffffffffffffffff16815260200190815260200160002060020160008460ff1660ff168152602001908152602001600020905060006040519080825280602002602001820160405280156123c95781602001602082028038833980820191505090505b508160020190805190602001906123e1929190614b36565b50600360008673ffffffffffffffffffffffffffffffffffffffff1673ffffffffffffffffffffffffffffffffffffffff16815260200190815260200160002060020160006001850160ff1660ff16815260200190815260200160002060000160009054906101000a900460ff161580156124605750600e8360ff1614155b156124835760018160000160016101000a81548160ff0219169083151502179055505b80600101600081548092919060010191905055508473ffffffffffffffffffffffffffffffffffffffff16600160009054906101000a900473ffffffffffffffffffffffffffffffffffffffff1673ffffffffffffffffffffffffffffffffffffffff16146125df5760006124fa86856001612f5d565b9050808260030160006101000a81548173ffffffffffffffffffffffffffffffffffffffff021916908373ffffffffffffffffffffffffffffffffffffffff1602179055508473ffffffffffffffffffffffffffffffffffffffff168173ffffffffffffffffffffffffffffffffffffffff168773ffffffffffffffffffffffffffffffffffffffff167f9a35251559f90e1df39fecda05752b703c0ec1b0148d7238f9473f99dfcbe29b876001604051808360ff1660ff168152602001821515151581526020019250505060405180910390a46125d9818786612173565b5061267d565b6125ec8486856001613837565b8373ffffffffffffffffffffffffffffffffffffffff16600073ffffffffffffffffffffffffffffffffffffffff168673ffffffffffffffffffffffffffffffffffffffff167f9a35251559f90e1df39fecda05752b703c0ec1b0148d7238f9473f99dfcbe29b866001604051808360ff1660ff168152602001821515151581526020019250505060405180910390a45b50505b505050565b6000600360008573ffffffffffffffffffffffffffffffffffffffff1673ffffffffffffffffffffffffffffffffffffffff16815260200190815260200160002060030160008360ff1660ff1681526020019081526020016000209050600281600301805490501015612bd257806003018390806001815401808255809150509060018203906000526020600020016000909192909190916101000a81548173ffffffffffffffffffffffffffffffffffffffff021916908373ffffffffffffffffffffffffffffffffffffffff1602179055505083600360008573ffffffffffffffffffffffffffffffffffffffff1673ffffffffffffffffffffffffffffffffffffffff16815260200190815260200160002060030160008460ff1660ff16815260200190815260200160002060050160006101000a81548173ffffffffffffffffffffffffffffffffffffffff021916908373ffffffffffffffffffffffffffffffffffffffff1602179055508373ffffffffffffffffffffffffffffffffffffffff168373ffffffffffffffffffffffffffffffffffffffff167f7709d4d8d7f0226aa6e219aa4c38c1e6438dd49d0fe365a4402d843b8327ce138460008560030180549050604051808460ff1660ff168152602001831515151581526020018260ff1660ff168152602001935050505060405180910390a3600160009054906101000a900473ffffffffffffffffffffffffffffffffffffffff1673ffffffffffffffffffffffffffffffffffffffff168473ffffffffffffffffffffffffffffffffffffffff1614156128eb576128e58385846000613837565b50612f58565b60008160050160009054906101000a900473ffffffffffffffffffffffffffffffffffffffff169050600360008273ffffffffffffffffffffffffffffffffffffffff1673ffffffffffffffffffffffffffffffffffffffff16815260200190815260200160002060030160008460ff1660ff1681526020019081526020016000206004018490806001815401808255809150509060018203906000526020600020016000909192909190916101000a81548173ffffffffffffffffffffffffffffffffffffffff021916908373ffffffffffffffffffffffffffffffffffffffff160217905550506000600360008373ffffffffffffffffffffffffffffffffffffffff1673ffffffffffffffffffffffffffffffffffffffff16815260200190815260200160002060030160008560ff1660ff16815260200190815260200160002060030180549050905060006001820390505b60008160ff1610612bbe578673ffffffffffffffffffffffffffffffffffffffff16600360008573ffffffffffffffffffffffffffffffffffffffff1673ffffffffffffffffffffffffffffffffffffffff16815260200190815260200160002060030160008760ff1660ff1681526020019081526020016000206003018260ff1681548110612acd57fe5b9060005260206000200160009054906101000a900473ffffffffffffffffffffffffffffffffffffffff1673ffffffffffffffffffffffffffffffffffffffff161415612bb1578273ffffffffffffffffffffffffffffffffffffffff168673ffffffffffffffffffffffffffffffffffffffff167f7709d4d8d7f0226aa6e219aa4c38c1e6438dd49d0fe365a4402d843b8327ce1387600088600301805490506001870160020260ff1601604051808460ff1660ff168152602001831515151581526020018260ff1660ff168152602001935050505060405180910390a3612bbe565b8080600101915050612a41565b50612bca858386613c69565b505050612f58565b806004018390806001815401808255809150509060018203906000526020600020016000909192909190916101000a81548173ffffffffffffffffffffffffffffffffffffffff021916908373ffffffffffffffffffffffffffffffffffffffff16021790555050600073ffffffffffffffffffffffffffffffffffffffff168160020160009054906101000a900473ffffffffffffffffffffffffffffffffffffffff1673ffffffffffffffffffffffffffffffffffffffff1614612d495760008160020160009054906101000a900473ffffffffffffffffffffffffffffffffffffffff1673ffffffffffffffffffffffffffffffffffffffff1682600301600081548110612cdf57fe5b9060005260206000200160009054906101000a900473ffffffffffffffffffffffffffffffffffffffff1673ffffffffffffffffffffffffffffffffffffffff161415612d2b57600190505b612d378585858461420e565b612d42848685613c69565b5050612f58565b60008090505b60028160ff161015612df9578373ffffffffffffffffffffffffffffffffffffffff16826003018260ff1681548110612d8457fe5b9060005260206000200160009054906101000a900473ffffffffffffffffffffffffffffffffffffffff1673ffffffffffffffffffffffffffffffffffffffff161415612dec57612dda8585856001851861420e565b612de5848685613c69565b5050612f58565b8080600101915050612d4f565b506000600190506003600083600301600181548110612e1457fe5b9060005260206000200160009054906101000a900473ffffffffffffffffffffffffffffffffffffffff1673ffffffffffffffffffffffffffffffffffffffff1673ffffffffffffffffffffffffffffffffffffffff16815260200190815260200160002060030160008460ff1660ff168152602001908152602001600020600301805490506003600084600301600081548110612eae57fe5b9060005260206000200160009054906101000a900473ffffffffffffffffffffffffffffffffffffffff1673ffffffffffffffffffffffffffffffffffffffff1673ffffffffffffffffffffffffffffffffffffffff16815260200190815260200160002060030160008560ff1660ff1681526020019081526020016000206003018054905011612f3e57600090505b612f4a8585858461420e565b612f55848685613c69565b50505b505050565b6000612f67614bc0565b600360008673ffffffffffffffffffffffffffffffffffffffff1673ffffffffffffffffffffffffffffffffffffffff1681526020019081526020016000206040518060a001604052908160008201548152602001600182015481526020016004820160009054906101000a900473ffffffffffffffffffffffffffffffffffffffff1673ffffffffffffffffffffffffffffffffffffffff1673ffffffffffffffffffffffffffffffffffffffff1681526020016004820160149054906101000a900460ff1660ff1660ff1681526020016004820160159054906101000a900460ff1615151515815250509050600083156130d25760036000836040015173ffffffffffffffffffffffffffffffffffffffff1673ffffffffffffffffffffffffffffffffffffffff16815260200190815260200160002060020160008660ff1660ff16815260200190815260200160002060000160009054906101000a900460ff169050613143565b60036000836040015173ffffffffffffffffffffffffffffffffffffffff1673ffffffffffffffffffffffffffffffffffffffff16815260200190815260200160002060030160008660ff1660ff16815260200190815260200160002060000160009054906101000a900460ff1690505b80156131575781604001519250505061316b565b61316682604001518686612f5d565b925050505b9392505050565b6005600360008373ffffffffffffffffffffffffffffffffffffffff1673ffffffffffffffffffffffffffffffffffffffff16815260200190815260200160002060040160149054906101000a900460ff1660ff16106131d1576135bd565b60006001600360008473ffffffffffffffffffffffffffffffffffffffff1673ffffffffffffffffffffffffffffffffffffffff16815260200190815260200160002060040160149054906101000a900460ff16019050613230614c0a565b600660008360ff1660ff16815260200190815260200160002060405180604001604052908160008201548152602001600182015481525050905060005b81600001518160ff16101561344d57600360008573ffffffffffffffffffffffffffffffffffffffff1673ffffffffffffffffffffffffffffffffffffffff16815260200190815260200160002060020160008260ff1660ff16815260200190815260200160002060000160009054906101000a900460ff1615806133595750600360008573ffffffffffffffffffffffffffffffffffffffff1673ffffffffffffffffffffffffffffffffffffffff16815260200190815260200160002060030160008260ff1660ff16815260200190815260200160002060000160009054906101000a900460ff16155b15613366575050506135bd565b8160200151600360008673ffffffffffffffffffffffffffffffffffffffff1673ffffffffffffffffffffffffffffffffffffffff16815260200190815260200160002060020160008360ff1660ff16815260200190815260200160002060040154108061343357508160200151600360008673ffffffffffffffffffffffffffffffffffffffff1673ffffffffffffffffffffffffffffffffffffffff16815260200190815260200160002060030160008360ff1660ff16815260200190815260200160002060060154105b15613440575050506135bd565b808060010191505061326d565b5081600360008573ffffffffffffffffffffffffffffffffffffffff1673ffffffffffffffffffffffffffffffffffffffff16815260200190815260200160002060040160146101000a81548160ff021916908360ff160217905550600560009054906101000a900473ffffffffffffffffffffffffffffffffffffffff1673ffffffffffffffffffffffffffffffffffffffff1663a1fb0fd384600360008773ffffffffffffffffffffffffffffffffffffffff1673ffffffffffffffffffffffffffffffffffffffff16815260200190815260200160002060000154856040518463ffffffff1660e01b8152600401808473ffffffffffffffffffffffffffffffffffffffff1673ffffffffffffffffffffffffffffffffffffffff1681526020018381526020018260ff1660ff1681526020019350505050600060405180830381600087803b1580156135a257600080fd5b505af11580156135b6573d6000803e3d6000fd5b5050505050505b50565b600360008273ffffffffffffffffffffffffffffffffffffffff1673ffffffffffffffffffffffffffffffffffffffff16815260200190815260200160002060040160159054906101000a900460ff161561361a57613834565b60005b60038160ff16101561371e57600360008373ffffffffffffffffffffffffffffffffffffffff1673ffffffffffffffffffffffffffffffffffffffff16815260200190815260200160002060020160008260ff1660ff16815260200190815260200160002060000160009054906101000a900460ff1615806137065750600360008373ffffffffffffffffffffffffffffffffffffffff1673ffffffffffffffffffffffffffffffffffffffff16815260200190815260200160002060030160008260ff1660ff16815260200190815260200160002060000160009054906101000a900460ff16155b156137115750613834565b808060010191505061361d565b506001600360008373ffffffffffffffffffffffffffffffffffffffff1673ffffffffffffffffffffffffffffffffffffffff16815260200190815260200160002060040160156101000a81548160ff021916908315150217905550600760009054906101000a900473ffffffffffffffffffffffffffffffffffffffff1673ffffffffffffffffffffffffffffffffffffffff1663421b2d8b826040518263ffffffff1660e01b8152600401808273ffffffffffffffffffffffffffffffffffffffff1673ffffffffffffffffffffffffffffffffffffffff168152602001915050600060405180830381600087803b15801561381b57600080fd5b505af115801561382f573d6000803e3d6000fd5b505050505b50565b600080613848868686866000614562565b915091506000613872600860008760ff1660ff168152602001908152602001600020546046614a57565b9050600081600860008860ff1660ff1681526020019081526020016000205403905060006138a1826046614a57565b90506000818303905060006138b7826045614a57565b905060006138c6836001614a57565b90508773ffffffffffffffffffffffffffffffffffffffff166108fc879081150290604051600060405180830381858888f19350505050613949578773ffffffffffffffffffffffffffffffffffffffff166108fc879081150290604051600060405180830381858888f19350505050158015613947573d6000803e3d6000fd5b505b600160009054906101000a900473ffffffffffffffffffffffffffffffffffffffff1673ffffffffffffffffffffffffffffffffffffffff166108fc839081150290604051600060405180830381858888f19350505050613a0e57600160009054906101000a900473ffffffffffffffffffffffffffffffffffffffff1673ffffffffffffffffffffffffffffffffffffffff166108fc839081150290604051600060405180830381858888f19350505050158015613a0c573d6000803e3d6000fd5b505b600260009054906101000a900473ffffffffffffffffffffffffffffffffffffffff1673ffffffffffffffffffffffffffffffffffffffff166108fc829081150290604051600060405180830381858888f19350505050613ad357600260009054906101000a900473ffffffffffffffffffffffffffffffffffffffff1673ffffffffffffffffffffffffffffffffffffffff166108fc829081150290604051600060405180830381858888f19350505050158015613ad1573d6000803e3d6000fd5b505b600760009054906101000a900473ffffffffffffffffffffffffffffffffffffffff1673ffffffffffffffffffffffffffffffffffffffff1663d286f990856040518263ffffffff1660e01b81526004016000604051808303818588803b158015613b3d57600080fd5b505af1158015613b51573d6000803e3d6000fd5b5050505050600560009054906101000a900473ffffffffffffffffffffffffffffffffffffffff1673ffffffffffffffffffffffffffffffffffffffff1663c0e317fb82848603036040518263ffffffff1660e01b81526004016000604051808303818588803b158015613bc457600080fd5b505af1158015613bd8573d6000803e3d6000fd5b50505050508615613c5b578773ffffffffffffffffffffffffffffffffffffffff168c73ffffffffffffffffffffffffffffffffffffffff167f0888df8a4d1e813df2d4f059ef2f7129e828f5f6d2320b19ee06bc124b4d78a98c8c604051808360ff1660ff168152602001821515151581526020019250505060405180910390a35b505050505050505050505050565b6000600360008473ffffffffffffffffffffffffffffffffffffffff1673ffffffffffffffffffffffffffffffffffffffff168152602001908152602001600020905060048160030160008460ff1660ff168152602001908152602001600020600401805490501015613ce957613ce38484846000613837565b50614209565b6000600360008360030160008660ff1660ff16815260200190815260200160002060050160009054906101000a900473ffffffffffffffffffffffffffffffffffffffff1673ffffffffffffffffffffffffffffffffffffffff1673ffffffffffffffffffffffffffffffffffffffff168152602001908152602001600020905060608160030160008560ff1660ff168152602001908152602001600020600301805480602002602001604051908101604052809291908181526020018280548015613e0a57602002820191906000526020600020905b8160009054906101000a900473ffffffffffffffffffffffffffffffffffffffff1673ffffffffffffffffffffffffffffffffffffffff1681526020019060010190808311613dc0575b5050505050905060008090505b81518160ff161015613ed8578573ffffffffffffffffffffffffffffffffffffffff16828260ff1681518110613e4957fe5b602002602001015173ffffffffffffffffffffffffffffffffffffffff161415613ecb57858360030160008760ff1660ff16815260200190815260200160002060020160006101000a81548173ffffffffffffffffffffffffffffffffffffffff021916908373ffffffffffffffffffffffffffffffffffffffff1602179055505b8080600101915050613e17565b506000604051908082528060200260200182016040528015613f095781602001602082028038833980820191505090505b508360030160008660ff1660ff1681526020019081526020016000206003019080519060200190613f3b929190614b36565b506000604051908082528060200260200182016040528015613f6c5781602001602082028038833980820191505090505b508360030160008660ff1660ff1681526020019081526020016000206004019080519060200190613f9e929190614b36565b5060008360030160008660ff1660ff16815260200190815260200160002060020160006101000a81548173ffffffffffffffffffffffffffffffffffffffff021916908373ffffffffffffffffffffffffffffffffffffffff1602179055508260030160008560ff1660ff168152602001908152602001600020600101600081548092919060010191905055508260030160006001860160ff1660ff16815260200190815260200160002060000160009054906101000a900460ff1615801561406b5750600e8460ff1614155b156140a85760018360030160008660ff1660ff16815260200190815260200160002060000160016101000a81548160ff0219169083151502179055505b60018360000154141561415a578573ffffffffffffffffffffffffffffffffffffffff16600073ffffffffffffffffffffffffffffffffffffffff168673ffffffffffffffffffffffffffffffffffffffff167f9a35251559f90e1df39fecda05752b703c0ec1b0148d7238f9473f99dfcbe29b876000604051808360ff1660ff168152602001821515151581526020019250505060405180910390a46141528686866000613837565b505050614209565b600061416886866000612f5d565b90508673ffffffffffffffffffffffffffffffffffffffff168173ffffffffffffffffffffffffffffffffffffffff168773ffffffffffffffffffffffffffffffffffffffff167f9a35251559f90e1df39fecda05752b703c0ec1b0148d7238f9473f99dfcbe29b886000604051808360ff1660ff168152602001821515151581526020019250505060405180910390a4614204818787612685565b505050505b505050565b6000600360008573ffffffffffffffffffffffffffffffffffffffff1673ffffffffffffffffffffffffffffffffffffffff16815260200190815260200160002090506000600360008773ffffffffffffffffffffffffffffffffffffffff1673ffffffffffffffffffffffffffffffffffffffff168152602001908152602001600020905060008160030160008660ff1660ff1681526020019081526020016000206003018460ff16815481106142c257fe5b9060005260206000200160009054906101000a900473ffffffffffffffffffffffffffffffffffffffff1690506000600360008373ffffffffffffffffffffffffffffffffffffffff1673ffffffffffffffffffffffffffffffffffffffff16815260200190815260200160002090508060030160008760ff1660ff1681526020019081526020016000206003018790806001815401808255809150509060018203906000526020600020016000909192909190916101000a81548173ffffffffffffffffffffffffffffffffffffffff021916908373ffffffffffffffffffffffffffffffffffffffff1602179055505060008160030160008860ff1660ff1681526020019081526020016000206003018054905090506000816001880160ff1660020a0160ff1690508373ffffffffffffffffffffffffffffffffffffffff168973ffffffffffffffffffffffffffffffffffffffff167f7709d4d8d7f0226aa6e219aa4c38c1e6438dd49d0fe365a4402d843b8327ce138a600086604051808460ff1660ff168152602001831515151581526020018260ff1660ff168152602001935050505060405180910390a38973ffffffffffffffffffffffffffffffffffffffff168973ffffffffffffffffffffffffffffffffffffffff167f7709d4d8d7f0226aa6e219aa4c38c1e6438dd49d0fe365a4402d843b8327ce138a600085604051808460ff1660ff168152602001831515151581526020018260ff1660ff168152602001935050505060405180910390a3838660030160008a60ff1660ff16815260200190815260200160002060050160006101000a81548173ffffffffffffffffffffffffffffffffffffffff021916908373ffffffffffffffffffffffffffffffffffffffff16021790555050505050505050505050565b600080600080851561471e57614576614ae6565b600360008a73ffffffffffffffffffffffffffffffffffffffff1673ffffffffffffffffffffffffffffffffffffffff16815260200190815260200160002060020160008960ff1660ff1681526020019081526020016000206040518060c00160405290816000820160009054906101000a900460ff161515151581526020016000820160019054906101000a900460ff16151515158152602001600182015481526020016002820180548060200260200160405190810160405280929190818152602001828054801561469f57602002820191906000526020600020905b8160009054906101000a900473ffffffffffffffffffffffffffffffffffffffff1673ffffffffffffffffffffffffffffffffffffffff1681526020019060010190808311614655575b505050505081526020016003820160009054906101000a900473ffffffffffffffffffffffffffffffffffffffff1673ffffffffffffffffffffffffffffffffffffffff1673ffffffffffffffffffffffffffffffffffffffff16815260200160048201548152505090508060200151925080608001519150506149af565b614726614a71565b600360008a73ffffffffffffffffffffffffffffffffffffffff1673ffffffffffffffffffffffffffffffffffffffff16815260200190815260200160002060030160008960ff1660ff168152602001908152602001600020604051806101000160405290816000820160009054906101000a900460ff161515151581526020016000820160019054906101000a900460ff16151515158152602001600182015481526020016002820160009054906101000a900473ffffffffffffffffffffffffffffffffffffffff1673ffffffffffffffffffffffffffffffffffffffff1673ffffffffffffffffffffffffffffffffffffffff168152602001600382018054806020026020016040519081016040528092919081815260200182805480156148a657602002820191906000526020600020905b8160009054906101000a900473ffffffffffffffffffffffffffffffffffffffff1673ffffffffffffffffffffffffffffffffffffffff168152602001906001019080831161485c575b505050505081526020016004820180548060200260200160405190810160405280929190818152602001828054801561493457602002820191906000526020600020905b8160009054906101000a900473ffffffffffffffffffffffffffffffffffffffff1673ffffffffffffffffffffffffffffffffffffffff16815260200190600101908083116148ea575b505050505081526020016005820160009054906101000a900473ffffffffffffffffffffffffffffffffffffffff1673ffffffffffffffffffffffffffffffffffffffff1673ffffffffffffffffffffffffffffffffffffffff1681526020016006820154815250509050806020015192508060c001519150505b816149c1578785935093505050614a4d565b8773ffffffffffffffffffffffffffffffffffffffff168973ffffffffffffffffffffffffffffffffffffffff167f1476b758e3ab16d12906dcefb297a5799728f3c7b3edfb22c45dd67dd18e97d48989604051808360ff1660ff168152602001821515151581526020019250505060405180910390a3614a46898289896001614562565b9350935050505b9550959350505050565b600060648260ff16840281614a6857fe5b04905092915050565b60405180610100016040528060001515815260200160001515815260200160008152602001600073ffffffffffffffffffffffffffffffffffffffff1681526020016060815260200160608152602001600073ffffffffffffffffffffffffffffffffffffffff168152602001600081525090565b6040518060c001604052806000151581526020016000151581526020016000815260200160608152602001600073ffffffffffffffffffffffffffffffffffffffff168152602001600081525090565b828054828255906000526020600020908101928215614baf579160200282015b82811115614bae5782518260006101000a81548173ffffffffffffffffffffffffffffffffffffffff021916908373ffffffffffffffffffffffffffffffffffffffff16021790555091602001919060010190614b56565b5b509050614bbc9190614c24565b5090565b6040518060a001604052806000815260200160008152602001600073ffffffffffffffffffffffffffffffffffffffff168152602001600060ff1681526020016000151581525090565b604051806040016040528060008152602001600081525090565b614c6491905b80821115614c6057600081816101000a81549073ffffffffffffffffffffffffffffffffffffffff021916905550600101614c2a565b5090565b9056fe546865206e657720757365722063616e6e6f74206265206120636f6e7472616374506c6561736520626f756768742074686520626f786573207072696f7220746f2074686973a26474726f6e5820192ca96eb193932e43a89c2b5bca5e07e2fc32ca79cbf6411f858fce3292c0ff64736f6c634300050a0031",
  "source": "// SPDX-License-Identifier: MIT\r\npragma solidity ^0.5.10;\r\n\r\nimport \"./CareerPlan.sol\";\r\nimport \"./Lotto.sol\";\r\n\r\ncontract SmartLotto {\r\n    event SignUpEvent(address indexed _newUser, uint indexed _userId, address indexed _sponsor, uint _sponsorId);\r\n    event NewUserChildEvent(address indexed _user, address indexed _sponsor, uint8 _box, bool _isSmartDirect, uint8 _position);\r\n    event ReinvestBoxEvent(address indexed _user, address indexed currentSponsor, address indexed addrCaller, uint8 _box, bool _isSmartDirect);\r\n    event MissedEvent(address indexed _from, address indexed _to, uint8 _box, bool _isSmartDirect);\r\n    event SentExtraEvent(address indexed _from, address indexed _to, uint8 _box, bool _isSmartDirect);\r\n    event UpgradeStatusEvent(address indexed _user, address indexed _sponsor, uint8 _box, bool _isSmartDirect);\r\n\r\n    struct SmartTeamBox {\r\n        bool purchased;\r\n        bool inactive;\r\n        uint reinvests;\r\n        address closedAddr;\r\n        address[] firstLevelChilds;\r\n        address[] secondLevelChilds;\r\n        address currentSponsor;\r\n        uint partnersCount;\r\n    }\r\n\r\n    struct SmartDirectBox {\r\n        bool purchased;\r\n        bool inactive;\r\n        uint reinvests;\r\n        address[] childs;\r\n        address currentSponsor;\r\n        uint partnersCount;\r\n    }\r\n\r\n    struct User {\r\n        uint id;\r\n        uint partnersCount;\r\n        mapping(uint8=>SmartDirectBox) directBoxes;\r\n        mapping(uint8=>SmartTeamBox) teamBoxes;\r\n        address sponsor;\r\n        uint8 levelCareerPlan;\r\n        bool activeInLottery;\r\n    }\r\n\r\n    uint nextId = 1;\r\n    address payable externalAddress;\r\n    address payable externalFeeAddress;\r\n    mapping(address=>User) public users;\r\n    mapping(uint=>address payable) public idLookup;\r\n\r\n    CareerPlan careerPlan;\r\n    struct PlanRequirements {\r\n        uint purchasedBoxes;\r\n        uint countReferrers;\r\n    }\r\n    mapping(uint8 => PlanRequirements) levelRequirements;\r\n    Lotto lottery;\r\n\r\n    mapping(uint8 => uint) public boxesValues;\r\n    mapping(uint8 => uint) public boxes70PtgValues;\r\n    mapping(uint8 => uint) public boxesExternalValues;\r\n    mapping(uint8 => uint) public boxesPlanValues;\r\n\r\n    modifier validSponsor(address _sponsor) {\r\n        require(users[_sponsor].id != 0, \"This sponsor does not exists\");\r\n        _;\r\n    }\r\n\r\n    modifier onlyUser() {\r\n        require(users[msg.sender].id != 0, \"This user does not exists\");\r\n        _;\r\n    }\r\n\r\n    modifier validNewUser(address _newUser) {\r\n        uint32 size;\r\n        assembly {\r\n            size := extcodesize(_newUser)\r\n        }\r\n        require(size == 0, \"The new user cannot be a contract\");\r\n        require(users[_newUser].id == 0, \"This user already exists\");\r\n        _;\r\n    }\r\n\r\n    modifier validBox(uint _box) {\r\n        require(_box >= 1 && _box <= 14, \"Invalid box\");\r\n        _;\r\n    }\r\n\r\n    constructor(address payable _externalAddress, address payable _careerPlanAddress, address payable _lotteryAddress, address payable _externalFeeAddress) public {\r\n        externalAddress = _externalAddress;\r\n        externalFeeAddress = _externalFeeAddress;\r\n        lottery = Lotto(_lotteryAddress);\r\n        initializeCareerPlan(_careerPlanAddress);\r\n        User storage root = users[externalAddress];\r\n        root.id = nextId++;\r\n        idLookup[root.id] = externalAddress;\r\n        for (uint8 i = 1; i <= 14; i++) {\r\n            boxesValues[i] = 250 * 1e6 * (2**(i - 1));\r\n            boxes70PtgValues[i] = 175 * 1e6 * (2**(i - 1));\r\n            boxesExternalValues[i] = 52.5 * 1e6 * (2**(i - 1));\r\n            boxesPlanValues[i] = 22.5 * 1e6 * (2**(i - 1));\r\n            \r\n            root.directBoxes[i].purchased = true;\r\n            root.teamBoxes[i].purchased = true;\r\n        }\r\n    }\r\n\r\n    function initializeCareerPlan(address payable _careerPlanAddress) internal {\r\n        careerPlan = CareerPlan(_careerPlanAddress);\r\n        levelRequirements[1].countReferrers = 10;\r\n        levelRequirements[1].purchasedBoxes = 3;\r\n        levelRequirements[2].countReferrers = 20;\r\n        levelRequirements[2].purchasedBoxes = 6;\r\n        levelRequirements[3].countReferrers = 30;\r\n        levelRequirements[3].purchasedBoxes = 9;\r\n        levelRequirements[4].countReferrers = 40;\r\n        levelRequirements[4].purchasedBoxes = 12;\r\n        levelRequirements[5].countReferrers = 60;\r\n        levelRequirements[5].purchasedBoxes = 14;\r\n    }\r\n\r\n    function() external payable {\r\n        if(msg.data.length == 0) return signUp(msg.sender, externalAddress);\r\n        address sponsor;\r\n        bytes memory data = msg.data;\r\n        assembly {\r\n            sponsor := mload(add(data, 20))\r\n        }\r\n        signUp(msg.sender, sponsor);\r\n    }\r\n\r\n    function signUp(address payable _newUser, address _sponsor) private validSponsor(_sponsor) validNewUser(_newUser) {\r\n        require(msg.value == 500 * 1e6, \"Please enter required amount\");\r\n\r\n        // user node data\r\n        User storage userNode = users[_newUser];\r\n        userNode.id = nextId++;\r\n        userNode.sponsor = _sponsor;\r\n        userNode.directBoxes[1].purchased = true;\r\n        userNode.teamBoxes[1].purchased = true;\r\n        idLookup[userNode.id] = _newUser;\r\n\r\n        users[_sponsor].partnersCount++;\r\n        users[_sponsor].directBoxes[1].partnersCount++;\r\n        users[_sponsor].teamBoxes[1].partnersCount++;\r\n        userNode.directBoxes[1].currentSponsor = _sponsor;\r\n        modifySmartDirectSponsor(_sponsor, _newUser, 1);\r\n        modifySmartTeamSponsor(_sponsor, _newUser, 1);\r\n        emit SignUpEvent(_newUser, userNode.id, _sponsor,  users[_sponsor].id);\r\n    }\r\n\r\n    function signUp(address sponsor) external payable {\r\n        signUp(msg.sender, sponsor);\r\n    }\r\n\r\n    function buyNewBox(uint8 _matrix, uint8 _box) external payable onlyUser validBox(_box) {\r\n        require(_matrix == 1 || _matrix == 2, \"Invalid matrix\");\r\n        require(msg.value == boxesValues[_box], \"Please enter required amount\");\r\n        if (_matrix == 1) {\r\n            require(!users[msg.sender].directBoxes[_box].purchased, \"You already bought that box\");\r\n            require(users[msg.sender].directBoxes[_box - 1].purchased, \"Please bought the boxes prior to this\");\r\n\r\n            users[msg.sender].directBoxes[_box].purchased = true;\r\n            users[msg.sender].directBoxes[_box - 1].inactive = false;\r\n            address sponsorResult = findSponsor(msg.sender, _box, true);\r\n            users[msg.sender].directBoxes[_box].currentSponsor = sponsorResult;\r\n            modifySmartDirectSponsor(sponsorResult, msg.sender, _box);\r\n            if(users[users[msg.sender].sponsor].directBoxes[_box].purchased) {\r\n                users[users[msg.sender].sponsor].directBoxes[_box].partnersCount++;\r\n                verifyLevelOfUser(users[msg.sender].sponsor);\r\n            }\r\n            emit UpgradeStatusEvent(msg.sender, sponsorResult, _box, true);\r\n        } else {\r\n            require(!users[msg.sender].teamBoxes[_box].purchased, \"You already bought that box\");\r\n            require(users[msg.sender].teamBoxes[_box - 1].purchased, \"Please bought the boxes prior to this\");\r\n\r\n            users[msg.sender].teamBoxes[_box].purchased = true;\r\n            users[msg.sender].teamBoxes[_box - 1].inactive = false;\r\n            address sponsorResult = findSponsor(msg.sender, _box, false);\r\n            modifySmartTeamSponsor(sponsorResult, msg.sender, _box);\r\n            if(users[users[msg.sender].sponsor].teamBoxes[_box].purchased) {\r\n                users[users[msg.sender].sponsor].teamBoxes[_box].partnersCount++;\r\n                verifyLevelOfUser(users[msg.sender].sponsor);\r\n            }\r\n\r\n            emit UpgradeStatusEvent(msg.sender, sponsorResult, _box, false);\r\n        }\r\n        verifyRequirementsForLottery(msg.sender);\r\n    }\r\n\r\n    function verifyLevelOfUser(address user) internal {\r\n        if (users[user].levelCareerPlan >= 5) return;\r\n        uint8 level = users[user].levelCareerPlan + 1;\r\n        PlanRequirements memory requirements = levelRequirements[level];\r\n        for(uint8 i; i < requirements.purchasedBoxes; i++) {\r\n            if(!users[user].directBoxes[i].purchased || !users[user].teamBoxes[i].purchased) return;\r\n            if(users[user].directBoxes[i].partnersCount < requirements.countReferrers\r\n                || users[user].teamBoxes[i].partnersCount < requirements.countReferrers) return;\r\n        }\r\n        users[user].levelCareerPlan = level;\r\n        careerPlan.addUserToLevel(user, users[user].id, level);\r\n    }\r\n\r\n    function verifyRequirementsForLottery(address user) internal {\r\n        if (users[user].activeInLottery) return;\r\n        for(uint8 i; i < 3; i++) {\r\n            if(!users[user].directBoxes[i].purchased || !users[user].teamBoxes[i].purchased)\r\n                return;\r\n        }\r\n        users[user].activeInLottery = true;\r\n        lottery.addUser(user);\r\n    }\r\n\r\n    function modifySmartDirectSponsor(address _sponsor, address _user, uint8 _box) private {\r\n        users[_sponsor].directBoxes[_box].childs.push(_user);\r\n        uint8 position = uint8(users[_sponsor].directBoxes[_box].childs.length);\r\n        emit NewUserChildEvent(_user, _sponsor, _box, true, position);\r\n        if (position < 3)\r\n            return applyDistribution(_user, _sponsor, _box, true);\r\n        SmartDirectBox storage directData = users[_sponsor].directBoxes[_box];\r\n        directData.childs = new address[](0);\r\n        if (!users[_sponsor].directBoxes[_box + 1].purchased && _box != 14) directData.inactive = true;\r\n        directData.reinvests++;\r\n        if (externalAddress != _sponsor) {\r\n            address sponsorResult = findSponsor(_sponsor, _box, true);\r\n            directData.currentSponsor = sponsorResult;\r\n            emit ReinvestBoxEvent(_sponsor, sponsorResult, _user, _box, true);\r\n            modifySmartDirectSponsor(sponsorResult, _sponsor, _box);\r\n        } else {\r\n            applyDistribution(_user, _sponsor, _box, true);\r\n            emit ReinvestBoxEvent(_sponsor, address(0), _user, _box, true);\r\n        }\r\n    }\r\n\r\n    function findSponsor(address _addr, uint8 _box, bool _isSmartDirect) internal view returns(address) {\r\n        User memory node = users[_addr];\r\n        bool purchased;\r\n        if (_isSmartDirect) purchased = users[node.sponsor].directBoxes[_box].purchased;\r\n        else purchased = users[node.sponsor].teamBoxes[_box].purchased;\r\n        if (purchased) return node.sponsor;\r\n        return findSponsor(node.sponsor, _box, _isSmartDirect);\r\n    }\r\n\r\n    function modifySmartTeamSponsor(address _sponsor, address _user, uint8 _box) private {\r\n        SmartTeamBox storage sponsorBoxData = users[_sponsor].teamBoxes[_box];\r\n\r\n        if (sponsorBoxData.firstLevelChilds.length < 2) {\r\n            sponsorBoxData.firstLevelChilds.push(_user);\r\n            users[_user].teamBoxes[_box].currentSponsor = _sponsor;\r\n            emit NewUserChildEvent(_user, _sponsor, _box, false, uint8(sponsorBoxData.firstLevelChilds.length));\r\n\r\n            if (_sponsor == externalAddress)\r\n                return applyDistribution(_user, _sponsor, _box, false);\r\n\r\n            address currentSponsor = sponsorBoxData.currentSponsor;\r\n            users[currentSponsor].teamBoxes[_box].secondLevelChilds.push(_user);\r\n\r\n            uint8 len = uint8(users[currentSponsor].teamBoxes[_box].firstLevelChilds.length);\r\n\r\n            for(uint8 i = len - 1; i >= 0; i++) {\r\n                if(users[currentSponsor].teamBoxes[_box].firstLevelChilds[i] == _sponsor) {\r\n                    emit NewUserChildEvent(_user, currentSponsor, _box, false, uint8((2 * (i + 1)) + sponsorBoxData.firstLevelChilds.length));\r\n                    break;\r\n                }\r\n            }\r\n\r\n            return modifySmartTeamSecondLevel(_user, currentSponsor, _box);\r\n        }\r\n\r\n        sponsorBoxData.secondLevelChilds.push(_user);\r\n\r\n        if (sponsorBoxData.closedAddr != address(0)) {\r\n            uint8 index;\r\n            if (sponsorBoxData.firstLevelChilds[0] == sponsorBoxData.closedAddr) {\r\n                index = 1;\r\n            }\r\n            modifySmartTeam(_sponsor, _user, _box, index);\r\n            return modifySmartTeamSecondLevel(_user, _sponsor, _box);\r\n        }\r\n\r\n        for(uint8 i = 0;i < 2;i++) {\r\n            if(sponsorBoxData.firstLevelChilds[i] == _user) {\r\n                modifySmartTeam(_sponsor, _user, _box, i^1);\r\n                return modifySmartTeamSecondLevel(_user, _sponsor, _box);\r\n            }\r\n        }\r\n        uint8 index = 1;\r\n        if (users[sponsorBoxData.firstLevelChilds[0]].teamBoxes[_box].firstLevelChilds.length <=\r\n            users[sponsorBoxData.firstLevelChilds[1]].teamBoxes[_box].firstLevelChilds.length) {\r\n            index = 0;\r\n        }\r\n        modifySmartTeam(_sponsor, _user, _box, index);\r\n        modifySmartTeamSecondLevel(_user, _sponsor, _box);\r\n    }\r\n\r\n    function modifySmartTeam(address _sponsor, address _user, uint8 _box, uint8 _index) private {\r\n        User storage userData = users[_user];\r\n        User storage sponsorData = users[_sponsor];\r\n        address chieldAddress = sponsorData.teamBoxes[_box].firstLevelChilds[_index];\r\n        User storage childData = users[chieldAddress];\r\n        childData.teamBoxes[_box].firstLevelChilds.push(_user);\r\n        uint8 length = uint8(childData.teamBoxes[_box].firstLevelChilds.length);\r\n        uint position = (2**(_index + 1)) + length;\r\n        emit NewUserChildEvent(_user, chieldAddress, _box, false, length);\r\n        emit NewUserChildEvent(_user, _sponsor, _box, false, uint8(position));\r\n        userData.teamBoxes[_box].currentSponsor = chieldAddress;\r\n    }\r\n\r\n    function modifySmartTeamSecondLevel(address _user, address _sponsor, uint8 _box) private {\r\n        User storage sponsorData = users[_sponsor];\r\n        if (sponsorData.teamBoxes[_box].secondLevelChilds.length < 4)\r\n            return applyDistribution(_user, _sponsor, _box, false);\r\n\r\n        User storage currentSponsorData = users[sponsorData.teamBoxes[_box].currentSponsor];\r\n        address[] memory childs = currentSponsorData.teamBoxes[_box].firstLevelChilds;\r\n\r\n        for(uint8 i = 0;i < childs.length;i++) {\r\n            if(childs[i] == _sponsor)\r\n                currentSponsorData.teamBoxes[_box].closedAddr = _sponsor;\r\n        }\r\n        sponsorData.teamBoxes[_box].firstLevelChilds = new address[](0);\r\n        sponsorData.teamBoxes[_box].secondLevelChilds = new address[](0);\r\n        sponsorData.teamBoxes[_box].closedAddr = address(0);\r\n        sponsorData.teamBoxes[_box].reinvests++;\r\n\r\n        if (!sponsorData.teamBoxes[_box + 1].purchased && _box != 14)\r\n            sponsorData.teamBoxes[_box].inactive = true;\r\n\r\n        if (sponsorData.id == 1) {\r\n            emit ReinvestBoxEvent(_sponsor, address(0), _user, _box, false);\r\n            return applyDistribution(_user, _sponsor, _box, false);\r\n        }\r\n        address sponsorResult = findSponsor(_sponsor, _box, false);\r\n        emit ReinvestBoxEvent(_sponsor, sponsorResult, _user, _box, false);\r\n        modifySmartTeamSponsor(sponsorResult, _sponsor, _box);\r\n    }\r\n\r\n    function applyDistribution(address _from, address _to, uint8 _box, bool _isSmartDirect) private {\r\n        (address receiver, bool haveMissed) = getReceiver(_from, _to, _box, _isSmartDirect, false);\r\n        uint box70Ptg = percentage(boxesValues[_box], 70);\r\n        uint boxSystemAmount = boxesValues[_box] - box70Ptg;\r\n        uint lotteryAmount = percentage(boxSystemAmount, 70);\r\n        uint restAmount = boxSystemAmount - lotteryAmount;\r\n        uint externalAmount = percentage(restAmount, 69);\r\n        uint externalFeeAmount = percentage(restAmount, 1);\r\n        if(!address(uint160(receiver)).send(box70Ptg))\r\n            address(uint160(receiver)).transfer(box70Ptg);\r\n        if(!externalAddress.send(externalAmount))\r\n            externalAddress.transfer(externalAmount);\r\n        if(!externalFeeAddress.send(externalFeeAmount))\r\n            externalFeeAddress.transfer(externalFeeAmount);\r\n        lottery.addToRaffle.value(lotteryAmount)();\r\n        careerPlan.addToBalance.value(restAmount - externalAmount - externalFeeAmount)();\r\n        if (haveMissed)\r\n            emit SentExtraEvent(_from, receiver, _box, _isSmartDirect);\r\n    }\r\n\r\n    function percentage(uint amount, uint8 ptg) internal pure returns(uint) {\r\n        return amount * ptg / 100;\r\n    }\r\n\r\n    function getReceiver(address _from, address _to, uint8 _box, bool _isSmartDirect, bool _haveMissed) private  returns(address, bool) {\r\n        bool blocked;\r\n        address sponsor;\r\n        if (_isSmartDirect) {\r\n            SmartDirectBox memory directBoxData = users[_to].directBoxes[_box];\r\n            blocked = directBoxData.inactive;\r\n            sponsor = directBoxData.currentSponsor;\r\n        } else {\r\n            SmartTeamBox memory teamBoxData = users[_to].teamBoxes[_box];\r\n            blocked = teamBoxData.inactive;\r\n            sponsor = teamBoxData.currentSponsor;\r\n        }\r\n        if (!blocked) return (_to, _haveMissed);\r\n        emit MissedEvent(_from, _to, _box, _isSmartDirect);\r\n        return getReceiver(_from, sponsor, _box, _isSmartDirect, true);\r\n    }\r\n\r\n    function userSmartDirectBoxInfo(address _user, uint8 _box) public view returns(bool, bool, uint, address[] memory, address) {\r\n        SmartDirectBox memory data = users[_user].directBoxes[_box];\r\n        return (data.purchased, data.inactive, data.reinvests,\r\n        data.childs, data.currentSponsor);\r\n    }\r\n\r\n    function userSmartTeamBoxInfo(address _user, uint8 _box) public view returns(bool, bool, uint, address, address[] memory, address[] memory, address) {\r\n        SmartTeamBox memory data = users[_user].teamBoxes[_box];\r\n        return (data.purchased, data.inactive, data.reinvests, data.closedAddr,\r\n        data.firstLevelChilds, data.secondLevelChilds, data.currentSponsor);\r\n    }\r\n\r\n    function isValidUser(address _user) public view returns (bool) {\r\n        return (users[_user].id != 0);\r\n    }\r\n}\r\n",
  "sourcePath": "D:/Work/Projects/bios techology/smart-lotto/smart-lotto-tron/tron/contracts/SmartLotto.sol",
  "compiler": {
    "name": "solc",
    "version": "0.5.10+commit.a1d534ef.Emscripten.clang"
  },
  "schemaVersion": "2.0.1",
  "updatedAt": "2020-09-01T00:01:37.361Z"
}