{
  "contractName": "SmartLotto",
  "abi": [
    {
      "constant": true,
      "inputs": [
        {
          "name": "",
          "type": "uint256"
        }
      ],
      "name": "idLookup",
      "outputs": [
        {
          "name": "",
          "type": "address"
        }
      ],
      "payable": false,
      "stateMutability": "view",
      "type": "function"
    },
    {
      "constant": true,
      "inputs": [
        {
          "name": "",
          "type": "address"
        }
      ],
      "name": "users",
      "outputs": [
        {
          "name": "id",
          "type": "uint256"
        },
        {
          "name": "partnersCount",
          "type": "uint256"
        },
        {
          "name": "sponsor",
          "type": "address"
        },
        {
          "name": "levelCareerPlan",
          "type": "uint8"
        },
        {
          "name": "activeInLottery",
          "type": "bool"
        }
      ],
      "payable": false,
      "stateMutability": "view",
      "type": "function"
    },
    {
      "constant": true,
      "inputs": [
        {
          "name": "",
          "type": "uint8"
        }
      ],
      "name": "boxesValues",
      "outputs": [
        {
          "name": "",
          "type": "uint256"
        }
      ],
      "payable": false,
      "stateMutability": "view",
      "type": "function"
    },
    {
      "inputs": [
        {
          "name": "_externalAddress",
          "type": "address"
        },
        {
          "name": "_careerPlanAddress",
          "type": "address"
        },
        {
          "name": "_lotteryAddress",
          "type": "address"
        },
        {
          "name": "_externalFeeAddress",
          "type": "address"
        }
      ],
      "payable": false,
      "stateMutability": "nonpayable",
      "type": "constructor"
    },
    {
      "payable": true,
      "stateMutability": "payable",
      "type": "fallback"
    },
    {
      "anonymous": false,
      "inputs": [
        {
          "indexed": true,
          "name": "_newUser",
          "type": "address"
        },
        {
          "indexed": true,
          "name": "_userId",
          "type": "uint256"
        },
        {
          "indexed": true,
          "name": "_sponsor",
          "type": "address"
        },
        {
          "indexed": false,
          "name": "_sponsorId",
          "type": "uint256"
        }
      ],
      "name": "SignUpEvent",
      "type": "event"
    },
    {
      "anonymous": false,
      "inputs": [
        {
          "indexed": true,
          "name": "_user",
          "type": "address"
        },
        {
          "indexed": true,
          "name": "_sponsor",
          "type": "address"
        },
        {
          "indexed": false,
          "name": "_box",
          "type": "uint8"
        },
        {
          "indexed": false,
          "name": "_isSmartDirect",
          "type": "bool"
        },
        {
          "indexed": false,
          "name": "_position",
          "type": "uint8"
        }
      ],
      "name": "NewUserChildEvent",
      "type": "event"
    },
    {
      "anonymous": false,
      "inputs": [
        {
          "indexed": true,
          "name": "_user",
          "type": "address"
        },
        {
          "indexed": true,
          "name": "currentSponsor",
          "type": "address"
        },
        {
          "indexed": true,
          "name": "addrCaller",
          "type": "address"
        },
        {
          "indexed": false,
          "name": "_box",
          "type": "uint8"
        },
        {
          "indexed": false,
          "name": "_isSmartDirect",
          "type": "bool"
        }
      ],
      "name": "ReinvestBoxEvent",
      "type": "event"
    },
    {
      "anonymous": false,
      "inputs": [
        {
          "indexed": true,
          "name": "_from",
          "type": "address"
        },
        {
          "indexed": true,
          "name": "_to",
          "type": "address"
        },
        {
          "indexed": false,
          "name": "_box",
          "type": "uint8"
        },
        {
          "indexed": false,
          "name": "_isSmartDirect",
          "type": "bool"
        }
      ],
      "name": "MissedEvent",
      "type": "event"
    },
    {
      "anonymous": false,
      "inputs": [
        {
          "indexed": true,
          "name": "_from",
          "type": "address"
        },
        {
          "indexed": true,
          "name": "_to",
          "type": "address"
        },
        {
          "indexed": false,
          "name": "_box",
          "type": "uint8"
        },
        {
          "indexed": false,
          "name": "_isSmartDirect",
          "type": "bool"
        }
      ],
      "name": "SentExtraEvent",
      "type": "event"
    },
    {
      "anonymous": false,
      "inputs": [
        {
          "indexed": true,
          "name": "_user",
          "type": "address"
        },
        {
          "indexed": true,
          "name": "_sponsor",
          "type": "address"
        },
        {
          "indexed": false,
          "name": "_box",
          "type": "uint8"
        },
        {
          "indexed": false,
          "name": "_isSmartDirect",
          "type": "bool"
        }
      ],
      "name": "UpgradeStatusEvent",
      "type": "event"
    },
    {
      "constant": false,
      "inputs": [
        {
          "name": "sponsor",
          "type": "address"
        }
      ],
      "name": "signUp",
      "outputs": [],
      "payable": true,
      "stateMutability": "payable",
      "type": "function"
    },
    {
      "constant": false,
      "inputs": [
        {
          "name": "_matrix",
          "type": "uint8"
        },
        {
          "name": "_box",
          "type": "uint8"
        }
      ],
      "name": "buyNewBox",
      "outputs": [],
      "payable": true,
      "stateMutability": "payable",
      "type": "function"
    },
    {
      "constant": true,
      "inputs": [
        {
          "name": "_user",
          "type": "address"
        },
        {
          "name": "_box",
          "type": "uint8"
        }
      ],
      "name": "userSmartDirectBoxInfo",
      "outputs": [
        {
          "name": "",
          "type": "bool"
        },
        {
          "name": "",
          "type": "bool"
        },
        {
          "name": "",
          "type": "uint256"
        },
        {
          "name": "",
          "type": "address[]"
        },
        {
          "name": "",
          "type": "address"
        }
      ],
      "payable": false,
      "stateMutability": "view",
      "type": "function"
    },
    {
      "constant": true,
      "inputs": [
        {
          "name": "_user",
          "type": "address"
        },
        {
          "name": "_box",
          "type": "uint8"
        }
      ],
      "name": "userSmartTeamBoxInfo",
      "outputs": [
        {
          "name": "",
          "type": "bool"
        },
        {
          "name": "",
          "type": "bool"
        },
        {
          "name": "",
          "type": "uint256"
        },
        {
          "name": "",
          "type": "address"
        },
        {
          "name": "",
          "type": "address[]"
        },
        {
          "name": "",
          "type": "address[]"
        },
        {
          "name": "",
          "type": "address"
        }
      ],
      "payable": false,
      "stateMutability": "view",
      "type": "function"
    },
    {
      "constant": true,
      "inputs": [
        {
          "name": "_user",
          "type": "address"
        }
      ],
      "name": "isValidUser",
      "outputs": [
        {
          "name": "",
          "type": "bool"
        }
      ],
      "payable": false,
      "stateMutability": "view",
      "type": "function"
    }
  ],
  "bytecode": "0x608060405260016000553480156200001657600080fd5b50d380156200002457600080fd5b50d280156200003257600080fd5b506040516200595838038062005958833981810160405260808110156200005857600080fd5b810190808051906020019092919080519060200190929190805190602001909291908051906020019092919050505083600160006101000a81548173ffffffffffffffffffffffffffffffffffffffff021916908373ffffffffffffffffffffffffffffffffffffffff16021790555080600260006101000a81548173ffffffffffffffffffffffffffffffffffffffff021916908373ffffffffffffffffffffffffffffffffffffffff16021790555081600760006101000a81548173ffffffffffffffffffffffffffffffffffffffff021916908373ffffffffffffffffffffffffffffffffffffffff1602179055506200015a620002fb60201b60201c565b6200016b8362000c3960201b60201c565b600060036000600160009054906101000a900473ffffffffffffffffffffffffffffffffffffffff1673ffffffffffffffffffffffffffffffffffffffff1673ffffffffffffffffffffffffffffffffffffffff1681526020019081526020016000209050600080815480929190600101919050558160000181905550600160009054906101000a900473ffffffffffffffffffffffffffffffffffffffff16600460008360000154815260200190815260200160002060006101000a81548173ffffffffffffffffffffffffffffffffffffffff021916908373ffffffffffffffffffffffffffffffffffffffff1602179055506000600190505b600e8160ff1611620002ef5760018260020160008360ff1660ff16815260200190815260200160002060000160006101000a81548160ff02191690831515021790555060018260030160008360ff1660ff16815260200190815260200160002060000160006101000a81548160ff021916908315150217905550808060010191505062000267565b50505050505062000dbc565b630ee6b28060096000600160ff16815260200190815260200160002081905550631dcd650060096000600260ff16815260200190815260200160002081905550633b9aca0060096000600360ff16815260200190815260200160002081905550637735940060096000600460ff1681526020019081526020016000208190555063ee6b280060096000600560ff168152602001908152602001600020819055506401dcd6500060096000600660ff168152602001908152602001600020819055506403b9aca00060096000600760ff1681526020019081526020016000208190555064077359400060096000600860ff16815260200190815260200160002081905550640ee6b2800060096000600960ff16815260200190815260200160002081905550641dcd65000060096000600a60ff16815260200190815260200160002081905550643b9aca000060096000600b60ff1681526020019081526020016000208190555064773594000060096000600c60ff1681526020019081526020016000208190555064ee6b28000060096000600d60ff168152602001908152602001600020819055506501dcd650000060096000600e60ff168152602001908152602001600020819055506040518060a00160405280630a6e49c08152602001630321162081526020016266ff30815260200162ece488815260200162036ee881525060086000600160ff16815260200190815260200160002060008201518160000155602082015181600101556040820151816002015560608201518160030155608082015181600401559050506040518060a001604052806314dc938081526020016306422c40815260200162cdfe6081526020016301d9c91081526020016206ddd081525060086000600260ff16815260200190815260200160002060008201518160000155602082015181600101556040820151816002015560608201518160030155608082015181600401559050506040518060a001604052806329b927008152602001630c845880815260200163019bfcc081526020016303b392208152602001620dbba081525060086000600360ff16815260200190815260200160002060008201518160000155602082015181600101556040820151816002015560608201518160030155608082015181600401559050506040518060a001604052806353724e008152602001631908b1008152602001630337f980815260200163076724408152602001621b774081525060086000600460ff16815260200190815260200160002060008201518160000155602082015181600101556040820151816002015560608201518160030155608082015181600401559050506040518060a0016040528063a6e49c0081526020016332116200815260200163066ff3008152602001630ece488081526020016236ee8081525060086000600560ff16815260200190815260200160002060008201518160000155602082015181600101556040820151816002015560608201518160030155608082015181600401559050506040518060a0016040528064014dc938008152602001636422c4008152602001630cdfe6008152602001631d9c91008152602001626ddd0081525060086000600660ff16815260200190815260200160002060008201518160000155602082015181600101556040820151816002015560608201518160030155608082015181600401559050506040518060a0016040528064029b927000815260200163c845880081526020016319bfcc008152602001633b392200815260200162dbba0081525060086000600760ff16815260200190815260200160002060008201518160000155602082015181600101556040820151816002015560608201518160030155608082015181600401559050506040518060a0016040528064053724e00081526020016401908b1000815260200163337f98008152602001637672440081526020016301b7740081525060086000600860ff16815260200190815260200160002060008201518160000155602082015181600101556040820151816002015560608201518160030155608082015181600401559050506040518060a00160405280640a6e49c000815260200164032116200081526020016366ff3000815260200163ece48800815260200163036ee80081525060086000600960ff16815260200190815260200160002060008201518160000155602082015181600101556040820151816002015560608201518160030155608082015181600401559050506040518060a001604052806414dc93800081526020016406422c4000815260200163cdfe600081526020016401d9c9100081526020016306ddd00081525060086000600a60ff16815260200190815260200160002060008201518160000155602082015181600101556040820151816002015560608201518160030155608082015181600401559050506040518060a001604052806429b92700008152602001640c84588000815260200164019bfcc00081526020016403b39220008152602001630dbba00081525060086000600b60ff16815260200190815260200160002060008201518160000155602082015181600101556040820151816002015560608201518160030155608082015181600401559050506040518060a001604052806453724e00008152602001641908b100008152602001640337f9800081526020016407672440008152602001631b77400081525060086000600c60ff16815260200190815260200160002060008201518160000155602082015181600101556040820151816002015560608201518160030155608082015181600401559050506040518060a0016040528064a6e49c00008152602001643211620000815260200164066ff300008152602001640ece48800081526020016336ee800081525060086000600d60ff16815260200190815260200160002060008201518160000155602082015181600101556040820151816002015560608201518160030155608082015181600401559050506040518060a0016040528065014dc93800008152602001646422c400008152602001640cdfe600008152602001641d9c9100008152602001636ddd000081525060086000600e60ff1681526020019081526020016000206000820151816000015560208201518160010155604082015181600201556060820151816003015560808201518160040155905050565b80600560006101000a81548173ffffffffffffffffffffffffffffffffffffffff021916908373ffffffffffffffffffffffffffffffffffffffff160217905550600060066000600160ff16815260200190815260200160002060010181905550600260066000600160ff16815260200190815260200160002060000181905550600060066000600260ff16815260200190815260200160002060010181905550600360066000600260ff16815260200190815260200160002060000181905550600060066000600360ff16815260200190815260200160002060010181905550600460066000600360ff16815260200190815260200160002060000181905550600060066000600460ff16815260200190815260200160002060010181905550600560066000600460ff16815260200190815260200160002060000181905550600060066000600560ff168152602001908152602001600020600101819055506006806000600560ff1681526020019081526020016000206000018190555050565b614b8c8062000dcc6000396000f3fe60806040526004361061007b5760003560e01c8063a87430ba1161004e578063a87430ba146104a2578063cb9429b514610573578063ef1d60a1146105b7578063f3c95c60146106235761007b565b8063291f73a71461011a57806348b812dc146101af5780634f27ac30146103475780635a4c4dbd14610464575b60008036905014156100b8576100b333600160009054906101000a900473ffffffffffffffffffffffffffffffffffffffff166106a6565b610118565b600060606000368080601f016020809104026020016040519081016040528093929190818152602001838380828437600081840152601f19601f8201169050808301925050505050505090506014810151915061011533836106a6565b50505b005b34801561012657600080fd5b50d3801561013357600080fd5b50d2801561014057600080fd5b5061016d6004803603602081101561015757600080fd5b8101908080359060200190929190505050610ca2565b604051808273ffffffffffffffffffffffffffffffffffffffff1673ffffffffffffffffffffffffffffffffffffffff16815260200191505060405180910390f35b3480156101bb57600080fd5b50d380156101c857600080fd5b50d280156101d557600080fd5b50610225600480360360408110156101ec57600080fd5b81019080803573ffffffffffffffffffffffffffffffffffffffff169060200190929190803560ff169060200190929190505050610cd5565b6040518088151515158152602001871515151581526020018681526020018573ffffffffffffffffffffffffffffffffffffffff1673ffffffffffffffffffffffffffffffffffffffff16815260200180602001806020018473ffffffffffffffffffffffffffffffffffffffff1673ffffffffffffffffffffffffffffffffffffffff168152602001838103835286818151815260200191508051906020019060200280838360005b838110156102ea5780820151818401526020810190506102cf565b50505050905001838103825285818151815260200191508051906020019060200280838360005b8381101561032c578082015181840152602081019050610311565b50505050905001995050505050505050505060405180910390f35b34801561035357600080fd5b50d3801561036057600080fd5b50d2801561036d57600080fd5b506103bd6004803603604081101561038457600080fd5b81019080803573ffffffffffffffffffffffffffffffffffffffff169060200190929190803560ff169060200190929190505050610fa5565b604051808615151515815260200185151515158152602001848152602001806020018373ffffffffffffffffffffffffffffffffffffffff1673ffffffffffffffffffffffffffffffffffffffff168152602001828103825284818151815260200191508051906020019060200280838360005b8381101561044c578082015181840152602081019050610431565b50505050905001965050505050505060405180910390f35b6104a06004803603604081101561047a57600080fd5b81019080803560ff169060200190929190803560ff16906020019092919050505061117b565b005b3480156104ae57600080fd5b50d380156104bb57600080fd5b50d280156104c857600080fd5b5061050b600480360360208110156104df57600080fd5b81019080803573ffffffffffffffffffffffffffffffffffffffff169060200190929190505050611ef4565b604051808681526020018581526020018473ffffffffffffffffffffffffffffffffffffffff1673ffffffffffffffffffffffffffffffffffffffff1681526020018360ff1660ff168152602001821515151581526020019550505050505060405180910390f35b6105b56004803603602081101561058957600080fd5b81019080803573ffffffffffffffffffffffffffffffffffffffff169060200190929190505050611f64565b005b3480156105c357600080fd5b50d380156105d057600080fd5b50d280156105dd57600080fd5b5061060d600480360360208110156105f457600080fd5b81019080803560ff169060200190929190505050611f71565b6040518082815260200191505060405180910390f35b34801561062f57600080fd5b50d3801561063c57600080fd5b50d2801561064957600080fd5b5061068c6004803603602081101561066057600080fd5b81019080803573ffffffffffffffffffffffffffffffffffffffff169060200190929190505050611f89565b604051808215151515815260200191505060405180910390f35b806000600360008373ffffffffffffffffffffffffffffffffffffffff1673ffffffffffffffffffffffffffffffffffffffff168152602001908152602001600020600001541415610760576040517f08c379a000000000000000000000000000000000000000000000000000000000815260040180806020018281038252601c8152602001807f546869732073706f6e736f7220646f6573206e6f74206578697374730000000081525060200191505060405180910390fd5b826000813b905060008163ffffffff16146107c6576040517f08c379a0000000000000000000000000000000000000000000000000000000008152600401808060200182810382526021815260200180614b136021913960400191505060405180910390fd5b6000600360008473ffffffffffffffffffffffffffffffffffffffff1673ffffffffffffffffffffffffffffffffffffffff168152602001908152602001600020600001541461087e576040517f08c379a00000000000000000000000000000000000000000000000000000000081526004018080602001828103825260188152602001807f54686973207573657220616c726561647920657869737473000000000000000081525060200191505060405180910390fd5b631dcd650034146108f7576040517f08c379a000000000000000000000000000000000000000000000000000000000815260040180806020018281038252601c8152602001807f506c6561736520656e74657220726571756972656420616d6f756e740000000081525060200191505060405180910390fd5b6000600360008773ffffffffffffffffffffffffffffffffffffffff1673ffffffffffffffffffffffffffffffffffffffff1681526020019081526020016000209050600080815480929190600101919050558160000181905550848160040160006101000a81548173ffffffffffffffffffffffffffffffffffffffff021916908373ffffffffffffffffffffffffffffffffffffffff1602179055506001816002016000600160ff16815260200190815260200160002060000160006101000a81548160ff0219169083151502179055506001816003016000600160ff16815260200190815260200160002060000160006101000a81548160ff02191690831515021790555085600460008360000154815260200190815260200160002060006101000a81548173ffffffffffffffffffffffffffffffffffffffff021916908373ffffffffffffffffffffffffffffffffffffffff160217905550600360008673ffffffffffffffffffffffffffffffffffffffff1673ffffffffffffffffffffffffffffffffffffffff16815260200190815260200160002060010160008154809291906001019190505550600360008673ffffffffffffffffffffffffffffffffffffffff1673ffffffffffffffffffffffffffffffffffffffff1681526020019081526020016000206002016000600160ff16815260200190815260200160002060040160008154809291906001019190505550600360008673ffffffffffffffffffffffffffffffffffffffff1673ffffffffffffffffffffffffffffffffffffffff1681526020019081526020016000206003016000600160ff1681526020019081526020016000206006016000815480929190600101919050555084816002016000600160ff16815260200190815260200160002060030160006101000a81548173ffffffffffffffffffffffffffffffffffffffff021916908373ffffffffffffffffffffffffffffffffffffffff160217905550610be285876001611fd8565b610bee858760016124ea565b8473ffffffffffffffffffffffffffffffffffffffff1681600001548773ffffffffffffffffffffffffffffffffffffffff167f3a707e23f197b52db6816c0b2866103fb96cbf17f35d1d3ae7aecf15c620f396600360008a73ffffffffffffffffffffffffffffffffffffffff1673ffffffffffffffffffffffffffffffffffffffff168152602001908152602001600020600001546040518082815260200191505060405180910390a4505050505050565b60046020528060005260406000206000915054906101000a900473ffffffffffffffffffffffffffffffffffffffff1681565b6000806000806060806000610ce861491c565b600360008b73ffffffffffffffffffffffffffffffffffffffff1673ffffffffffffffffffffffffffffffffffffffff16815260200190815260200160002060030160008a60ff1660ff168152602001908152602001600020604051806101000160405290816000820160009054906101000a900460ff161515151581526020016000820160019054906101000a900460ff16151515158152602001600182015481526020016002820160009054906101000a900473ffffffffffffffffffffffffffffffffffffffff1673ffffffffffffffffffffffffffffffffffffffff1673ffffffffffffffffffffffffffffffffffffffff16815260200160038201805480602002602001604051908101604052809291908181526020018280548015610e6857602002820191906000526020600020905b8160009054906101000a900473ffffffffffffffffffffffffffffffffffffffff1673ffffffffffffffffffffffffffffffffffffffff1681526020019060010190808311610e1e575b5050505050815260200160048201805480602002602001604051908101604052809291908181526020018280548015610ef657602002820191906000526020600020905b8160009054906101000a900473ffffffffffffffffffffffffffffffffffffffff1673ffffffffffffffffffffffffffffffffffffffff1681526020019060010190808311610eac575b505050505081526020016005820160009054906101000a900473ffffffffffffffffffffffffffffffffffffffff1673ffffffffffffffffffffffffffffffffffffffff1673ffffffffffffffffffffffffffffffffffffffff1681526020016006820154815250509050806000015181602001518260400151836060015184608001518560a001518660c0015182925081915097509750975097509750975097505092959891949750929550565b600080600060606000610fb6614991565b600360008973ffffffffffffffffffffffffffffffffffffffff1673ffffffffffffffffffffffffffffffffffffffff16815260200190815260200160002060020160008860ff1660ff1681526020019081526020016000206040518060c00160405290816000820160009054906101000a900460ff161515151581526020016000820160019054906101000a900460ff1615151515815260200160018201548152602001600282018054806020026020016040519081016040528092919081815260200182805480156110df57602002820191906000526020600020905b8160009054906101000a900473ffffffffffffffffffffffffffffffffffffffff1673ffffffffffffffffffffffffffffffffffffffff1681526020019060010190808311611095575b505050505081526020016003820160009054906101000a900473ffffffffffffffffffffffffffffffffffffffff1673ffffffffffffffffffffffffffffffffffffffff1673ffffffffffffffffffffffffffffffffffffffff16815260200160048201548152505090508060000151816020015182604001518360600151846080015181915095509550955095509550509295509295909350565b6000600360003373ffffffffffffffffffffffffffffffffffffffff1673ffffffffffffffffffffffffffffffffffffffff168152602001908152602001600020600001541415611234576040517f08c379a00000000000000000000000000000000000000000000000000000000081526004018080602001828103825260198152602001807f54686973207573657220646f6573206e6f74206578697374730000000000000081525060200191505060405180910390fd5b8060ff166001811015801561124a5750600e8111155b6112bc576040517f08c379a000000000000000000000000000000000000000000000000000000000815260040180806020018281038252600b8152602001807f496e76616c696420626f7800000000000000000000000000000000000000000081525060200191505060405180910390fd5b60018360ff1614806112d1575060028360ff16145b611343576040517f08c379a000000000000000000000000000000000000000000000000000000000815260040180806020018281038252600e8152602001807f496e76616c6964206d617472697800000000000000000000000000000000000081525060200191505060405180910390fd5b600960008360ff1660ff1681526020019081526020016000205434146113d1576040517f08c379a000000000000000000000000000000000000000000000000000000000815260040180806020018281038252601c8152602001807f506c6561736520656e74657220726571756972656420616d6f756e740000000081525060200191505060405180910390fd5b60018360ff1614156119b157600360003373ffffffffffffffffffffffffffffffffffffffff1673ffffffffffffffffffffffffffffffffffffffff16815260200190815260200160002060020160008360ff1660ff16815260200190815260200160002060000160009054906101000a900460ff16156114ba576040517f08c379a000000000000000000000000000000000000000000000000000000000815260040180806020018281038252601b8152602001807f596f7520616c726561647920626f75676874207468617420626f78000000000081525060200191505060405180910390fd5b600360003373ffffffffffffffffffffffffffffffffffffffff1673ffffffffffffffffffffffffffffffffffffffff16815260200190815260200160002060020160006001840360ff1660ff16815260200190815260200160002060000160009054906101000a900460ff1661157c576040517f08c379a0000000000000000000000000000000000000000000000000000000008152600401808060200182810382526025815260200180614b346025913960400191505060405180910390fd5b6001600360003373ffffffffffffffffffffffffffffffffffffffff1673ffffffffffffffffffffffffffffffffffffffff16815260200190815260200160002060020160008460ff1660ff16815260200190815260200160002060000160006101000a81548160ff0219169083151502179055506000600360003373ffffffffffffffffffffffffffffffffffffffff1673ffffffffffffffffffffffffffffffffffffffff16815260200190815260200160002060020160006001850360ff1660ff16815260200190815260200160002060000160016101000a81548160ff021916908315150217905550600061167733846001612dc2565b905080600360003373ffffffffffffffffffffffffffffffffffffffff1673ffffffffffffffffffffffffffffffffffffffff16815260200190815260200160002060020160008560ff1660ff16815260200190815260200160002060030160006101000a81548173ffffffffffffffffffffffffffffffffffffffff021916908373ffffffffffffffffffffffffffffffffffffffff16021790555061171f813385611fd8565b60036000600360003373ffffffffffffffffffffffffffffffffffffffff1673ffffffffffffffffffffffffffffffffffffffff16815260200190815260200160002060040160009054906101000a900473ffffffffffffffffffffffffffffffffffffffff1673ffffffffffffffffffffffffffffffffffffffff1673ffffffffffffffffffffffffffffffffffffffff16815260200190815260200160002060020160008460ff1660ff16815260200190815260200160002060000160009054906101000a900460ff16156119335760036000600360003373ffffffffffffffffffffffffffffffffffffffff1673ffffffffffffffffffffffffffffffffffffffff16815260200190815260200160002060040160009054906101000a900473ffffffffffffffffffffffffffffffffffffffff1673ffffffffffffffffffffffffffffffffffffffff1673ffffffffffffffffffffffffffffffffffffffff16815260200190815260200160002060020160008460ff1660ff16815260200190815260200160002060040160008154809291906001019190505550611929600360003373ffffffffffffffffffffffffffffffffffffffff1673ffffffffffffffffffffffffffffffffffffffff16815260200190815260200160002060040160009054906101000a900473ffffffffffffffffffffffffffffffffffffffff16612fd7565b61193233612fd7565b5b8073ffffffffffffffffffffffffffffffffffffffff163373ffffffffffffffffffffffffffffffffffffffff167f85a1f4489db5186bc792d3042c21cf7e3ffd54369f0f23d9073ffee54880b201856001604051808360ff1660ff168152602001821515151581526020019250505060405180910390a350611ee6565b600360003373ffffffffffffffffffffffffffffffffffffffff1673ffffffffffffffffffffffffffffffffffffffff16815260200190815260200160002060030160008360ff1660ff16815260200190815260200160002060000160009054906101000a900460ff1615611a8e576040517f08c379a000000000000000000000000000000000000000000000000000000000815260040180806020018281038252601b8152602001807f596f7520616c726561647920626f75676874207468617420626f78000000000081525060200191505060405180910390fd5b600360003373ffffffffffffffffffffffffffffffffffffffff1673ffffffffffffffffffffffffffffffffffffffff16815260200190815260200160002060030160006001840360ff1660ff16815260200190815260200160002060000160009054906101000a900460ff16611b50576040517f08c379a0000000000000000000000000000000000000000000000000000000008152600401808060200182810382526025815260200180614b346025913960400191505060405180910390fd5b6001600360003373ffffffffffffffffffffffffffffffffffffffff1673ffffffffffffffffffffffffffffffffffffffff16815260200190815260200160002060030160008460ff1660ff16815260200190815260200160002060000160006101000a81548160ff0219169083151502179055506000600360003373ffffffffffffffffffffffffffffffffffffffff1673ffffffffffffffffffffffffffffffffffffffff16815260200190815260200160002060030160006001850360ff1660ff16815260200190815260200160002060000160016101000a81548160ff0219169083151502179055506000611c4b33846000612dc2565b9050611c588133856124ea565b60036000600360003373ffffffffffffffffffffffffffffffffffffffff1673ffffffffffffffffffffffffffffffffffffffff16815260200190815260200160002060040160009054906101000a900473ffffffffffffffffffffffffffffffffffffffff1673ffffffffffffffffffffffffffffffffffffffff1673ffffffffffffffffffffffffffffffffffffffff16815260200190815260200160002060030160008460ff1660ff16815260200190815260200160002060000160009054906101000a900460ff1615611e6c5760036000600360003373ffffffffffffffffffffffffffffffffffffffff1673ffffffffffffffffffffffffffffffffffffffff16815260200190815260200160002060040160009054906101000a900473ffffffffffffffffffffffffffffffffffffffff1673ffffffffffffffffffffffffffffffffffffffff1673ffffffffffffffffffffffffffffffffffffffff16815260200190815260200160002060030160008460ff1660ff16815260200190815260200160002060060160008154809291906001019190505550611e62600360003373ffffffffffffffffffffffffffffffffffffffff1673ffffffffffffffffffffffffffffffffffffffff16815260200190815260200160002060040160009054906101000a900473ffffffffffffffffffffffffffffffffffffffff16612fd7565b611e6b33612fd7565b5b8073ffffffffffffffffffffffffffffffffffffffff163373ffffffffffffffffffffffffffffffffffffffff167f85a1f4489db5186bc792d3042c21cf7e3ffd54369f0f23d9073ffee54880b201856000604051808360ff1660ff168152602001821515151581526020019250505060405180910390a3505b611eef33613428565b505050565b60036020528060005260406000206000915090508060000154908060010154908060040160009054906101000a900473ffffffffffffffffffffffffffffffffffffffff16908060040160149054906101000a900460ff16908060040160159054906101000a900460ff16905085565b611f6e33826106a6565b50565b60096020528060005260406000206000915090505481565b600080600360008473ffffffffffffffffffffffffffffffffffffffff1673ffffffffffffffffffffffffffffffffffffffff1681526020019081526020016000206000015414159050919050565b600360008473ffffffffffffffffffffffffffffffffffffffff1673ffffffffffffffffffffffffffffffffffffffff16815260200190815260200160002060020160008260ff1660ff1681526020019081526020016000206002018290806001815401808255809150509060018203906000526020600020016000909192909190916101000a81548173ffffffffffffffffffffffffffffffffffffffff021916908373ffffffffffffffffffffffffffffffffffffffff160217905550506000600360008573ffffffffffffffffffffffffffffffffffffffff1673ffffffffffffffffffffffffffffffffffffffff16815260200190815260200160002060020160008360ff1660ff1681526020019081526020016000206002018054905090508373ffffffffffffffffffffffffffffffffffffffff168373ffffffffffffffffffffffffffffffffffffffff167f7709d4d8d7f0226aa6e219aa4c38c1e6438dd49d0fe365a4402d843b8327ce1384600185604051808460ff1660ff168152602001831515151581526020018260ff1660ff168152602001935050505060405180910390a360038160ff1610156121a15761219b83858460016136a2565b506124e5565b6000600360008673ffffffffffffffffffffffffffffffffffffffff1673ffffffffffffffffffffffffffffffffffffffff16815260200190815260200160002060020160008460ff1660ff1681526020019081526020016000209050600060405190808252806020026020018201604052801561222e5781602001602082028038833980820191505090505b508160020190805190602001906122469291906149e1565b50600360008673ffffffffffffffffffffffffffffffffffffffff1673ffffffffffffffffffffffffffffffffffffffff16815260200190815260200160002060020160006001850160ff1660ff16815260200190815260200160002060000160009054906101000a900460ff161580156122c55750600e8360ff1614155b156122e85760018160000160016101000a81548160ff0219169083151502179055505b80600101600081548092919060010191905055508473ffffffffffffffffffffffffffffffffffffffff16600160009054906101000a900473ffffffffffffffffffffffffffffffffffffffff1673ffffffffffffffffffffffffffffffffffffffff161461244457600061235f86856001612dc2565b9050808260030160006101000a81548173ffffffffffffffffffffffffffffffffffffffff021916908373ffffffffffffffffffffffffffffffffffffffff1602179055508473ffffffffffffffffffffffffffffffffffffffff168173ffffffffffffffffffffffffffffffffffffffff168773ffffffffffffffffffffffffffffffffffffffff167f9a35251559f90e1df39fecda05752b703c0ec1b0148d7238f9473f99dfcbe29b876001604051808360ff1660ff168152602001821515151581526020019250505060405180910390a461243e818786611fd8565b506124e2565b61245184868560016136a2565b8373ffffffffffffffffffffffffffffffffffffffff16600073ffffffffffffffffffffffffffffffffffffffff168673ffffffffffffffffffffffffffffffffffffffff167f9a35251559f90e1df39fecda05752b703c0ec1b0148d7238f9473f99dfcbe29b866001604051808360ff1660ff168152602001821515151581526020019250505060405180910390a45b50505b505050565b6000600360008573ffffffffffffffffffffffffffffffffffffffff1673ffffffffffffffffffffffffffffffffffffffff16815260200190815260200160002060030160008360ff1660ff1681526020019081526020016000209050600281600301805490501015612a3757806003018390806001815401808255809150509060018203906000526020600020016000909192909190916101000a81548173ffffffffffffffffffffffffffffffffffffffff021916908373ffffffffffffffffffffffffffffffffffffffff1602179055505083600360008573ffffffffffffffffffffffffffffffffffffffff1673ffffffffffffffffffffffffffffffffffffffff16815260200190815260200160002060030160008460ff1660ff16815260200190815260200160002060050160006101000a81548173ffffffffffffffffffffffffffffffffffffffff021916908373ffffffffffffffffffffffffffffffffffffffff1602179055508373ffffffffffffffffffffffffffffffffffffffff168373ffffffffffffffffffffffffffffffffffffffff167f7709d4d8d7f0226aa6e219aa4c38c1e6438dd49d0fe365a4402d843b8327ce138460008560030180549050604051808460ff1660ff168152602001831515151581526020018260ff1660ff168152602001935050505060405180910390a3600160009054906101000a900473ffffffffffffffffffffffffffffffffffffffff1673ffffffffffffffffffffffffffffffffffffffff168473ffffffffffffffffffffffffffffffffffffffff1614156127505761274a83858460006136a2565b50612dbd565b60008160050160009054906101000a900473ffffffffffffffffffffffffffffffffffffffff169050600360008273ffffffffffffffffffffffffffffffffffffffff1673ffffffffffffffffffffffffffffffffffffffff16815260200190815260200160002060030160008460ff1660ff1681526020019081526020016000206004018490806001815401808255809150509060018203906000526020600020016000909192909190916101000a81548173ffffffffffffffffffffffffffffffffffffffff021916908373ffffffffffffffffffffffffffffffffffffffff160217905550506000600360008373ffffffffffffffffffffffffffffffffffffffff1673ffffffffffffffffffffffffffffffffffffffff16815260200190815260200160002060030160008560ff1660ff16815260200190815260200160002060030180549050905060006001820390505b60008160ff1610612a23578673ffffffffffffffffffffffffffffffffffffffff16600360008573ffffffffffffffffffffffffffffffffffffffff1673ffffffffffffffffffffffffffffffffffffffff16815260200190815260200160002060030160008760ff1660ff1681526020019081526020016000206003018260ff168154811061293257fe5b9060005260206000200160009054906101000a900473ffffffffffffffffffffffffffffffffffffffff1673ffffffffffffffffffffffffffffffffffffffff161415612a16578273ffffffffffffffffffffffffffffffffffffffff168673ffffffffffffffffffffffffffffffffffffffff167f7709d4d8d7f0226aa6e219aa4c38c1e6438dd49d0fe365a4402d843b8327ce1387600088600301805490506001870160020260ff1601604051808460ff1660ff168152602001831515151581526020018260ff1660ff168152602001935050505060405180910390a3612a23565b80806001019150506128a6565b50612a2f858386613b2e565b505050612dbd565b806004018390806001815401808255809150509060018203906000526020600020016000909192909190916101000a81548173ffffffffffffffffffffffffffffffffffffffff021916908373ffffffffffffffffffffffffffffffffffffffff16021790555050600073ffffffffffffffffffffffffffffffffffffffff168160020160009054906101000a900473ffffffffffffffffffffffffffffffffffffffff1673ffffffffffffffffffffffffffffffffffffffff1614612bae5760008160020160009054906101000a900473ffffffffffffffffffffffffffffffffffffffff1673ffffffffffffffffffffffffffffffffffffffff1682600301600081548110612b4457fe5b9060005260206000200160009054906101000a900473ffffffffffffffffffffffffffffffffffffffff1673ffffffffffffffffffffffffffffffffffffffff161415612b9057600190505b612b9c858585846140d3565b612ba7848685613b2e565b5050612dbd565b60008090505b60028160ff161015612c5e578373ffffffffffffffffffffffffffffffffffffffff16826003018260ff1681548110612be957fe5b9060005260206000200160009054906101000a900473ffffffffffffffffffffffffffffffffffffffff1673ffffffffffffffffffffffffffffffffffffffff161415612c5157612c3f858585600185186140d3565b612c4a848685613b2e565b5050612dbd565b8080600101915050612bb4565b506000600190506003600083600301600181548110612c7957fe5b9060005260206000200160009054906101000a900473ffffffffffffffffffffffffffffffffffffffff1673ffffffffffffffffffffffffffffffffffffffff1673ffffffffffffffffffffffffffffffffffffffff16815260200190815260200160002060030160008460ff1660ff168152602001908152602001600020600301805490506003600084600301600081548110612d1357fe5b9060005260206000200160009054906101000a900473ffffffffffffffffffffffffffffffffffffffff1673ffffffffffffffffffffffffffffffffffffffff1673ffffffffffffffffffffffffffffffffffffffff16815260200190815260200160002060030160008560ff1660ff1681526020019081526020016000206003018054905011612da357600090505b612daf858585846140d3565b612dba848685613b2e565b50505b505050565b6000612dcc614a6b565b600360008673ffffffffffffffffffffffffffffffffffffffff1673ffffffffffffffffffffffffffffffffffffffff1681526020019081526020016000206040518060a001604052908160008201548152602001600182015481526020016004820160009054906101000a900473ffffffffffffffffffffffffffffffffffffffff1673ffffffffffffffffffffffffffffffffffffffff1673ffffffffffffffffffffffffffffffffffffffff1681526020016004820160149054906101000a900460ff1660ff1660ff1681526020016004820160159054906101000a900460ff161515151581525050905060008315612f375760036000836040015173ffffffffffffffffffffffffffffffffffffffff1673ffffffffffffffffffffffffffffffffffffffff16815260200190815260200160002060020160008660ff1660ff16815260200190815260200160002060000160009054906101000a900460ff169050612fa8565b60036000836040015173ffffffffffffffffffffffffffffffffffffffff1673ffffffffffffffffffffffffffffffffffffffff16815260200190815260200160002060030160008660ff1660ff16815260200190815260200160002060000160009054906101000a900460ff1690505b8015612fbc57816040015192505050612fd0565b612fcb82604001518686612dc2565b925050505b9392505050565b6005600360008373ffffffffffffffffffffffffffffffffffffffff1673ffffffffffffffffffffffffffffffffffffffff16815260200190815260200160002060040160149054906101000a900460ff1660ff161061303657613425565b60006001600360008473ffffffffffffffffffffffffffffffffffffffff1673ffffffffffffffffffffffffffffffffffffffff16815260200190815260200160002060040160149054906101000a900460ff16019050613095614ab5565b600660008360ff1660ff1681526020019081526020016000206040518060400160405290816000820154815260200160018201548152505090506000600190505b81600001518160ff16116132b557600360008573ffffffffffffffffffffffffffffffffffffffff1673ffffffffffffffffffffffffffffffffffffffff16815260200190815260200160002060020160008260ff1660ff16815260200190815260200160002060000160009054906101000a900460ff1615806131c15750600360008573ffffffffffffffffffffffffffffffffffffffff1673ffffffffffffffffffffffffffffffffffffffff16815260200190815260200160002060030160008260ff1660ff16815260200190815260200160002060000160009054906101000a900460ff16155b156131ce57505050613425565b8160200151600360008673ffffffffffffffffffffffffffffffffffffffff1673ffffffffffffffffffffffffffffffffffffffff16815260200190815260200160002060020160008360ff1660ff16815260200190815260200160002060040154108061329b57508160200151600360008673ffffffffffffffffffffffffffffffffffffffff1673ffffffffffffffffffffffffffffffffffffffff16815260200190815260200160002060030160008360ff1660ff16815260200190815260200160002060060154105b156132a857505050613425565b80806001019150506130d6565b5081600360008573ffffffffffffffffffffffffffffffffffffffff1673ffffffffffffffffffffffffffffffffffffffff16815260200190815260200160002060040160146101000a81548160ff021916908360ff160217905550600560009054906101000a900473ffffffffffffffffffffffffffffffffffffffff1673ffffffffffffffffffffffffffffffffffffffff1663a1fb0fd384600360008773ffffffffffffffffffffffffffffffffffffffff1673ffffffffffffffffffffffffffffffffffffffff16815260200190815260200160002060000154856040518463ffffffff1660e01b8152600401808473ffffffffffffffffffffffffffffffffffffffff1673ffffffffffffffffffffffffffffffffffffffff1681526020018381526020018260ff1660ff1681526020019350505050600060405180830381600087803b15801561340a57600080fd5b505af115801561341e573d6000803e3d6000fd5b5050505050505b50565b600360008273ffffffffffffffffffffffffffffffffffffffff1673ffffffffffffffffffffffffffffffffffffffff16815260200190815260200160002060040160159054906101000a900460ff16156134825761369f565b6000600190505b60038160ff161161358957600360008373ffffffffffffffffffffffffffffffffffffffff1673ffffffffffffffffffffffffffffffffffffffff16815260200190815260200160002060020160008260ff1660ff16815260200190815260200160002060000160009054906101000a900460ff1615806135715750600360008373ffffffffffffffffffffffffffffffffffffffff1673ffffffffffffffffffffffffffffffffffffffff16815260200190815260200160002060030160008260ff1660ff16815260200190815260200160002060000160009054906101000a900460ff16155b1561357c575061369f565b8080600101915050613489565b506001600360008373ffffffffffffffffffffffffffffffffffffffff1673ffffffffffffffffffffffffffffffffffffffff16815260200190815260200160002060040160156101000a81548160ff021916908315150217905550600760009054906101000a900473ffffffffffffffffffffffffffffffffffffffff1673ffffffffffffffffffffffffffffffffffffffff1663421b2d8b826040518263ffffffff1660e01b8152600401808273ffffffffffffffffffffffffffffffffffffffff1673ffffffffffffffffffffffffffffffffffffffff168152602001915050600060405180830381600087803b15801561368657600080fd5b505af115801561369a573d6000803e3d6000fd5b505050505b50565b6000806136b3868686866000614427565b915091508173ffffffffffffffffffffffffffffffffffffffff166108fc600860008760ff1660ff168152602001908152602001600020600001549081150290604051600060405180830381858888f19350505050613770578173ffffffffffffffffffffffffffffffffffffffff166108fc600860008760ff1660ff168152602001908152602001600020600001549081150290604051600060405180830381858888f1935050505015801561376e573d6000803e3d6000fd5b505b600160009054906101000a900473ffffffffffffffffffffffffffffffffffffffff1673ffffffffffffffffffffffffffffffffffffffff166108fc600860008760ff1660ff168152602001908152602001600020600301549081150290604051600060405180830381858888f1935050505061386d57600160009054906101000a900473ffffffffffffffffffffffffffffffffffffffff1673ffffffffffffffffffffffffffffffffffffffff166108fc600860008760ff1660ff168152602001908152602001600020600301549081150290604051600060405180830381858888f1935050505015801561386b573d6000803e3d6000fd5b505b600260009054906101000a900473ffffffffffffffffffffffffffffffffffffffff1673ffffffffffffffffffffffffffffffffffffffff166108fc600860008760ff1660ff168152602001908152602001600020600401549081150290604051600060405180830381858888f1935050505061396a57600260009054906101000a900473ffffffffffffffffffffffffffffffffffffffff1673ffffffffffffffffffffffffffffffffffffffff166108fc600860008760ff1660ff168152602001908152602001600020600401549081150290604051600060405180830381858888f19350505050158015613968573d6000803e3d6000fd5b505b600760009054906101000a900473ffffffffffffffffffffffffffffffffffffffff1673ffffffffffffffffffffffffffffffffffffffff1663d286f990600860008760ff1660ff168152602001908152602001600020600101546040518263ffffffff1660e01b81526004016000604051808303818588803b1580156139f057600080fd5b505af1158015613a04573d6000803e3d6000fd5b5050505050600560009054906101000a900473ffffffffffffffffffffffffffffffffffffffff1673ffffffffffffffffffffffffffffffffffffffff1663c0e317fb600860008760ff1660ff168152602001908152602001600020600201546040518263ffffffff1660e01b81526004016000604051808303818588803b158015613a8f57600080fd5b505af1158015613aa3573d6000803e3d6000fd5b50505050508015613b26578173ffffffffffffffffffffffffffffffffffffffff168673ffffffffffffffffffffffffffffffffffffffff167f0888df8a4d1e813df2d4f059ef2f7129e828f5f6d2320b19ee06bc124b4d78a98686604051808360ff1660ff168152602001821515151581526020019250505060405180910390a35b505050505050565b6000600360008473ffffffffffffffffffffffffffffffffffffffff1673ffffffffffffffffffffffffffffffffffffffff168152602001908152602001600020905060048160030160008460ff1660ff168152602001908152602001600020600401805490501015613bae57613ba884848460006136a2565b506140ce565b6000600360008360030160008660ff1660ff16815260200190815260200160002060050160009054906101000a900473ffffffffffffffffffffffffffffffffffffffff1673ffffffffffffffffffffffffffffffffffffffff1673ffffffffffffffffffffffffffffffffffffffff168152602001908152602001600020905060608160030160008560ff1660ff168152602001908152602001600020600301805480602002602001604051908101604052809291908181526020018280548015613ccf57602002820191906000526020600020905b8160009054906101000a900473ffffffffffffffffffffffffffffffffffffffff1673ffffffffffffffffffffffffffffffffffffffff1681526020019060010190808311613c85575b5050505050905060008090505b81518160ff161015613d9d578573ffffffffffffffffffffffffffffffffffffffff16828260ff1681518110613d0e57fe5b602002602001015173ffffffffffffffffffffffffffffffffffffffff161415613d9057858360030160008760ff1660ff16815260200190815260200160002060020160006101000a81548173ffffffffffffffffffffffffffffffffffffffff021916908373ffffffffffffffffffffffffffffffffffffffff1602179055505b8080600101915050613cdc565b506000604051908082528060200260200182016040528015613dce5781602001602082028038833980820191505090505b508360030160008660ff1660ff1681526020019081526020016000206003019080519060200190613e009291906149e1565b506000604051908082528060200260200182016040528015613e315781602001602082028038833980820191505090505b508360030160008660ff1660ff1681526020019081526020016000206004019080519060200190613e639291906149e1565b5060008360030160008660ff1660ff16815260200190815260200160002060020160006101000a81548173ffffffffffffffffffffffffffffffffffffffff021916908373ffffffffffffffffffffffffffffffffffffffff1602179055508260030160008560ff1660ff168152602001908152602001600020600101600081548092919060010191905055508260030160006001860160ff1660ff16815260200190815260200160002060000160009054906101000a900460ff16158015613f305750600e8460ff1614155b15613f6d5760018360030160008660ff1660ff16815260200190815260200160002060000160016101000a81548160ff0219169083151502179055505b60018360000154141561401f578573ffffffffffffffffffffffffffffffffffffffff16600073ffffffffffffffffffffffffffffffffffffffff168673ffffffffffffffffffffffffffffffffffffffff167f9a35251559f90e1df39fecda05752b703c0ec1b0148d7238f9473f99dfcbe29b876000604051808360ff1660ff168152602001821515151581526020019250505060405180910390a461401786868660006136a2565b5050506140ce565b600061402d86866000612dc2565b90508673ffffffffffffffffffffffffffffffffffffffff168173ffffffffffffffffffffffffffffffffffffffff168773ffffffffffffffffffffffffffffffffffffffff167f9a35251559f90e1df39fecda05752b703c0ec1b0148d7238f9473f99dfcbe29b886000604051808360ff1660ff168152602001821515151581526020019250505060405180910390a46140c98187876124ea565b505050505b505050565b6000600360008573ffffffffffffffffffffffffffffffffffffffff1673ffffffffffffffffffffffffffffffffffffffff16815260200190815260200160002090506000600360008773ffffffffffffffffffffffffffffffffffffffff1673ffffffffffffffffffffffffffffffffffffffff168152602001908152602001600020905060008160030160008660ff1660ff1681526020019081526020016000206003018460ff168154811061418757fe5b9060005260206000200160009054906101000a900473ffffffffffffffffffffffffffffffffffffffff1690506000600360008373ffffffffffffffffffffffffffffffffffffffff1673ffffffffffffffffffffffffffffffffffffffff16815260200190815260200160002090508060030160008760ff1660ff1681526020019081526020016000206003018790806001815401808255809150509060018203906000526020600020016000909192909190916101000a81548173ffffffffffffffffffffffffffffffffffffffff021916908373ffffffffffffffffffffffffffffffffffffffff1602179055505060008160030160008860ff1660ff1681526020019081526020016000206003018054905090506000816001880160ff1660020a0160ff1690508373ffffffffffffffffffffffffffffffffffffffff168973ffffffffffffffffffffffffffffffffffffffff167f7709d4d8d7f0226aa6e219aa4c38c1e6438dd49d0fe365a4402d843b8327ce138a600086604051808460ff1660ff168152602001831515151581526020018260ff1660ff168152602001935050505060405180910390a38973ffffffffffffffffffffffffffffffffffffffff168973ffffffffffffffffffffffffffffffffffffffff167f7709d4d8d7f0226aa6e219aa4c38c1e6438dd49d0fe365a4402d843b8327ce138a600085604051808460ff1660ff168152602001831515151581526020018260ff1660ff168152602001935050505060405180910390a3838660030160008a60ff1660ff16815260200190815260200160002060050160006101000a81548173ffffffffffffffffffffffffffffffffffffffff021916908373ffffffffffffffffffffffffffffffffffffffff16021790555050505050505050505050565b60008060008085156145e35761443b614991565b600360008a73ffffffffffffffffffffffffffffffffffffffff1673ffffffffffffffffffffffffffffffffffffffff16815260200190815260200160002060020160008960ff1660ff1681526020019081526020016000206040518060c00160405290816000820160009054906101000a900460ff161515151581526020016000820160019054906101000a900460ff16151515158152602001600182015481526020016002820180548060200260200160405190810160405280929190818152602001828054801561456457602002820191906000526020600020905b8160009054906101000a900473ffffffffffffffffffffffffffffffffffffffff1673ffffffffffffffffffffffffffffffffffffffff168152602001906001019080831161451a575b505050505081526020016003820160009054906101000a900473ffffffffffffffffffffffffffffffffffffffff1673ffffffffffffffffffffffffffffffffffffffff1673ffffffffffffffffffffffffffffffffffffffff1681526020016004820154815250509050806020015192508060800151915050614874565b6145eb61491c565b600360008a73ffffffffffffffffffffffffffffffffffffffff1673ffffffffffffffffffffffffffffffffffffffff16815260200190815260200160002060030160008960ff1660ff168152602001908152602001600020604051806101000160405290816000820160009054906101000a900460ff161515151581526020016000820160019054906101000a900460ff16151515158152602001600182015481526020016002820160009054906101000a900473ffffffffffffffffffffffffffffffffffffffff1673ffffffffffffffffffffffffffffffffffffffff1673ffffffffffffffffffffffffffffffffffffffff1681526020016003820180548060200260200160405190810160405280929190818152602001828054801561476b57602002820191906000526020600020905b8160009054906101000a900473ffffffffffffffffffffffffffffffffffffffff1673ffffffffffffffffffffffffffffffffffffffff1681526020019060010190808311614721575b50505050508152602001600482018054806020026020016040519081016040528092919081815260200182805480156147f957602002820191906000526020600020905b8160009054906101000a900473ffffffffffffffffffffffffffffffffffffffff1673ffffffffffffffffffffffffffffffffffffffff16815260200190600101908083116147af575b505050505081526020016005820160009054906101000a900473ffffffffffffffffffffffffffffffffffffffff1673ffffffffffffffffffffffffffffffffffffffff1673ffffffffffffffffffffffffffffffffffffffff1681526020016006820154815250509050806020015192508060c001519150505b81614886578785935093505050614912565b8773ffffffffffffffffffffffffffffffffffffffff168973ffffffffffffffffffffffffffffffffffffffff167f1476b758e3ab16d12906dcefb297a5799728f3c7b3edfb22c45dd67dd18e97d48989604051808360ff1660ff168152602001821515151581526020019250505060405180910390a361490b898289896001614427565b9350935050505b9550959350505050565b60405180610100016040528060001515815260200160001515815260200160008152602001600073ffffffffffffffffffffffffffffffffffffffff1681526020016060815260200160608152602001600073ffffffffffffffffffffffffffffffffffffffff168152602001600081525090565b6040518060c001604052806000151581526020016000151581526020016000815260200160608152602001600073ffffffffffffffffffffffffffffffffffffffff168152602001600081525090565b828054828255906000526020600020908101928215614a5a579160200282015b82811115614a595782518260006101000a81548173ffffffffffffffffffffffffffffffffffffffff021916908373ffffffffffffffffffffffffffffffffffffffff16021790555091602001919060010190614a01565b5b509050614a679190614acf565b5090565b6040518060a001604052806000815260200160008152602001600073ffffffffffffffffffffffffffffffffffffffff168152602001600060ff1681526020016000151581525090565b604051806040016040528060008152602001600081525090565b614b0f91905b80821115614b0b57600081816101000a81549073ffffffffffffffffffffffffffffffffffffffff021916905550600101614ad5565b5090565b9056fe546865206e657720757365722063616e6e6f74206265206120636f6e7472616374506c6561736520626f756768742074686520626f786573207072696f7220746f2074686973a26474726f6e582005a1595974ac34123b24d9a4f325b32aef8cb3cbe140c4d6a327756696f0a5d364736f6c634300050a0031",
  "source": "// SPDX-License-Identifier: MIT\r\npragma solidity ^0.5.10;\r\n\r\nimport \"./CareerPlan.sol\";\r\nimport \"./Lotto.sol\";\r\n\r\ncontract SmartLotto {\r\n    event SignUpEvent(address indexed _newUser, uint indexed _userId, address indexed _sponsor, uint _sponsorId);\r\n    event NewUserChildEvent(address indexed _user, address indexed _sponsor, uint8 _box, bool _isSmartDirect, uint8 _position);\r\n    event ReinvestBoxEvent(address indexed _user, address indexed currentSponsor, address indexed addrCaller, uint8 _box, bool _isSmartDirect);\r\n    event MissedEvent(address indexed _from, address indexed _to, uint8 _box, bool _isSmartDirect);\r\n    event SentExtraEvent(address indexed _from, address indexed _to, uint8 _box, bool _isSmartDirect);\r\n    event UpgradeStatusEvent(address indexed _user, address indexed _sponsor, uint8 _box, bool _isSmartDirect);\r\n\r\n    struct SmartTeamBox {\r\n        bool purchased;\r\n        bool inactive;\r\n        uint reinvests;\r\n        address closedAddr;\r\n        address[] firstLevelChilds;\r\n        address[] secondLevelChilds;\r\n        address currentSponsor;\r\n        uint partnersCount;\r\n    }\r\n\r\n    struct SmartDirectBox {\r\n        bool purchased;\r\n        bool inactive;\r\n        uint reinvests;\r\n        address[] childs;\r\n        address currentSponsor;\r\n        uint partnersCount;\r\n    }\r\n\r\n    struct User {\r\n        uint id;\r\n        uint partnersCount;\r\n        mapping(uint8=>SmartDirectBox) directBoxes;\r\n        mapping(uint8=>SmartTeamBox) teamBoxes;\r\n        address sponsor;\r\n        uint8 levelCareerPlan;\r\n        bool activeInLottery;\r\n    }\r\n\r\n    uint nextId = 1;\r\n    address externalAddress;\r\n    address externalFeeAddress;\r\n    mapping(address=>User) public users;\r\n    mapping(uint=>address) public idLookup;\r\n\r\n    CareerPlan careerPlan;\r\n    struct PlanRequirements {\r\n        uint purchasedBoxes;\r\n        uint countReferrers;\r\n    }\r\n    mapping(uint8 => PlanRequirements) levelRequirements;\r\n    Lotto lottery;\r\n\r\n    struct Distribution {\r\n        uint user;\r\n        uint lotto;\r\n        uint careerPlan;\r\n        uint owner;\r\n        uint fee;\r\n    }\r\n    mapping(uint8 => Distribution) boxDistribution;\r\n    mapping(uint8 => uint) public boxesValues;\r\n\r\n    modifier validSponsor(address _sponsor) {\r\n        require(users[_sponsor].id != 0, \"This sponsor does not exists\");\r\n        _;\r\n    }\r\n\r\n    modifier onlyUser() {\r\n        require(users[msg.sender].id != 0, \"This user does not exists\");\r\n        _;\r\n    }\r\n\r\n    modifier validNewUser(address _newUser) {\r\n        uint32 size;\r\n        assembly {\r\n            size := extcodesize(_newUser)\r\n        }\r\n        require(size == 0, \"The new user cannot be a contract\");\r\n        require(users[_newUser].id == 0, \"This user already exists\");\r\n        _;\r\n    }\r\n\r\n    modifier validBox(uint _box) {\r\n        require(_box >= 1 && _box <= 14, \"Invalid box\");\r\n        _;\r\n    }\r\n\r\n    constructor(address _externalAddress, address _careerPlanAddress, address _lotteryAddress, address _externalFeeAddress) public {\r\n        externalAddress = _externalAddress;\r\n        externalFeeAddress = _externalFeeAddress;\r\n        lottery = Lotto(_lotteryAddress);\r\n        initializeValues();\r\n        initializeCareerPlan(_careerPlanAddress);\r\n        User storage root = users[externalAddress];\r\n        root.id = nextId++;\r\n        idLookup[root.id] = externalAddress;\r\n        for (uint8 i = 1; i <= 14; i++) {\r\n            root.directBoxes[i].purchased = true;\r\n            root.teamBoxes[i].purchased = true;\r\n        }\r\n    }\r\n\r\n    function initializeValues() internal {\r\n        boxesValues[1] = 250 trx;\r\n        boxesValues[2] = 500 trx;\r\n        boxesValues[3] = 1000 trx;\r\n        boxesValues[4] = 2000 trx;\r\n        boxesValues[5] = 4000 trx;\r\n        boxesValues[6] = 8000 trx;\r\n        boxesValues[7] = 16000 trx;\r\n        boxesValues[8] = 32000 trx;\r\n        boxesValues[9] = 64000 trx;\r\n        boxesValues[10] = 128000 trx;\r\n        boxesValues[11] = 256000 trx;\r\n        boxesValues[12] = 512000 trx;\r\n        boxesValues[13] = 1024000 trx;\r\n        boxesValues[14] = 2048000 trx;\r\n        boxDistribution[1] = Distribution({user: 175 trx, lotto: 52.5 trx, careerPlan: 6.75 trx, owner: 15.525 trx, fee: 0.225 trx});\r\n        boxDistribution[2] = Distribution({user: 350 trx, lotto: 105 trx, careerPlan: 13.5 trx, owner: 31.05 trx, fee: 0.45 trx});\r\n        boxDistribution[3] = Distribution({user: 700 trx, lotto: 210 trx, careerPlan: 27 trx, owner: 62.1 trx, fee: 0.9 trx});\r\n        boxDistribution[4] = Distribution({user: 1400 trx, lotto: 420 trx, careerPlan: 54 trx, owner: 124.2 trx, fee: 1.8 trx});\r\n        boxDistribution[5] = Distribution({user: 2800 trx, lotto: 840 trx, careerPlan: 108 trx, owner: 248.4 trx, fee: 3.6 trx});\r\n        boxDistribution[6] = Distribution({user: 5600 trx, lotto: 1680 trx, careerPlan: 216 trx, owner: 496.8 trx, fee: 7.2 trx});\r\n        boxDistribution[7] = Distribution({user: 11200 trx, lotto: 3360 trx, careerPlan: 432 trx, owner: 993.6 trx, fee: 14.4 trx});\r\n        boxDistribution[8] = Distribution({user: 22400 trx, lotto: 6720 trx, careerPlan: 864 trx, owner: 1987.2 trx, fee: 28.8 trx});\r\n        boxDistribution[9] = Distribution({user: 44800 trx, lotto: 13440 trx, careerPlan: 1728 trx, owner: 3974.4 trx, fee: 57.6 trx});\r\n        boxDistribution[10] = Distribution({user: 89600 trx, lotto: 26880 trx, careerPlan: 3456 trx, owner: 7948.8 trx, fee: 115.2 trx});\r\n        boxDistribution[11] = Distribution({user: 179200 trx, lotto: 53760 trx, careerPlan: 6912 trx, owner: 15897.6 trx, fee: 230.4 trx});\r\n        boxDistribution[12] = Distribution({user: 358400 trx, lotto: 107520 trx, careerPlan: 13824 trx, owner: 31795.2 trx, fee: 460.8 trx});\r\n        boxDistribution[13] = Distribution({user: 716800 trx, lotto: 215040 trx, careerPlan: 27648 trx, owner: 63590.4 trx, fee: 921.6 trx});\r\n        boxDistribution[14] = Distribution({user: 1433600 trx, lotto: 430080 trx, careerPlan: 55296 trx, owner: 127180.8 trx, fee: 1843.2 trx});\r\n    }\r\n\r\n    function initializeCareerPlan(address _careerPlanAddress) internal {\r\n        careerPlan = CareerPlan(_careerPlanAddress);\r\n        //todo: change\r\n//        levelRequirements[1].countReferrers = 10;\r\n//        levelRequirements[1].purchasedBoxes = 3;\r\n//        levelRequirements[2].countReferrers = 20;\r\n//        levelRequirements[2].purchasedBoxes = 6;\r\n//        levelRequirements[3].countReferrers = 30;\r\n//        levelRequirements[3].purchasedBoxes = 9;\r\n//        levelRequirements[4].countReferrers = 40;\r\n//        levelRequirements[4].purchasedBoxes = 12;\r\n//        levelRequirements[5].countReferrers = 60;\r\n//        levelRequirements[5].purchasedBoxes = 14;\r\n        levelRequirements[1].countReferrers = 0;\r\n        levelRequirements[1].purchasedBoxes = 2;\r\n        levelRequirements[2].countReferrers = 0;\r\n        levelRequirements[2].purchasedBoxes = 3;\r\n        levelRequirements[3].countReferrers = 0;\r\n        levelRequirements[3].purchasedBoxes = 4;\r\n        levelRequirements[4].countReferrers = 0;\r\n        levelRequirements[4].purchasedBoxes = 5;\r\n        levelRequirements[5].countReferrers = 0;\r\n        levelRequirements[5].purchasedBoxes = 6;\r\n    }\r\n\r\n    function() external payable {\r\n        if(msg.data.length == 0) return signUp(msg.sender, externalAddress);\r\n        address sponsor;\r\n        bytes memory data = msg.data;\r\n        assembly {\r\n            sponsor := mload(add(data, 20))\r\n        }\r\n        signUp(msg.sender, sponsor);\r\n    }\r\n\r\n    function signUp(address payable _newUser, address _sponsor) private validSponsor(_sponsor) validNewUser(_newUser) {\r\n        require(msg.value == 500 * 1e6, \"Please enter required amount\");\r\n\r\n        // user node data\r\n        User storage userNode = users[_newUser];\r\n        userNode.id = nextId++;\r\n        userNode.sponsor = _sponsor;\r\n        userNode.directBoxes[1].purchased = true;\r\n        userNode.teamBoxes[1].purchased = true;\r\n        idLookup[userNode.id] = _newUser;\r\n\r\n        users[_sponsor].partnersCount++;\r\n        users[_sponsor].directBoxes[1].partnersCount++;\r\n        users[_sponsor].teamBoxes[1].partnersCount++;\r\n        userNode.directBoxes[1].currentSponsor = _sponsor;\r\n        modifySmartDirectSponsor(_sponsor, _newUser, 1);\r\n        modifySmartTeamSponsor(_sponsor, _newUser, 1);\r\n        emit SignUpEvent(_newUser, userNode.id, _sponsor,  users[_sponsor].id);\r\n    }\r\n\r\n    function signUp(address sponsor) external payable {\r\n        signUp(msg.sender, sponsor);\r\n    }\r\n\r\n    function buyNewBox(uint8 _matrix, uint8 _box) external payable onlyUser validBox(_box) {\r\n        require(_matrix == 1 || _matrix == 2, \"Invalid matrix\");\r\n        require(msg.value == boxesValues[_box], \"Please enter required amount\");\r\n        if (_matrix == 1) {\r\n            require(!users[msg.sender].directBoxes[_box].purchased, \"You already bought that box\");\r\n            require(users[msg.sender].directBoxes[_box - 1].purchased, \"Please bought the boxes prior to this\");\r\n\r\n            users[msg.sender].directBoxes[_box].purchased = true;\r\n            users[msg.sender].directBoxes[_box - 1].inactive = false;\r\n            address sponsorResult = findSponsor(msg.sender, _box, true);\r\n            users[msg.sender].directBoxes[_box].currentSponsor = sponsorResult;\r\n            modifySmartDirectSponsor(sponsorResult, msg.sender, _box);\r\n            if(users[users[msg.sender].sponsor].directBoxes[_box].purchased) {\r\n                users[users[msg.sender].sponsor].directBoxes[_box].partnersCount++;\r\n                verifyLevelOfUser(users[msg.sender].sponsor);\r\n                verifyLevelOfUser(msg.sender);\r\n            }\r\n            emit UpgradeStatusEvent(msg.sender, sponsorResult, _box, true);\r\n        } else {\r\n            require(!users[msg.sender].teamBoxes[_box].purchased, \"You already bought that box\");\r\n            require(users[msg.sender].teamBoxes[_box - 1].purchased, \"Please bought the boxes prior to this\");\r\n\r\n            users[msg.sender].teamBoxes[_box].purchased = true;\r\n            users[msg.sender].teamBoxes[_box - 1].inactive = false;\r\n            address sponsorResult = findSponsor(msg.sender, _box, false);\r\n            modifySmartTeamSponsor(sponsorResult, msg.sender, _box);\r\n            if(users[users[msg.sender].sponsor].teamBoxes[_box].purchased) {\r\n                users[users[msg.sender].sponsor].teamBoxes[_box].partnersCount++;\r\n                verifyLevelOfUser(users[msg.sender].sponsor);\r\n                verifyLevelOfUser(msg.sender);\r\n            }\r\n\r\n            emit UpgradeStatusEvent(msg.sender, sponsorResult, _box, false);\r\n        }\r\n        verifyRequirementsForLottery(msg.sender);\r\n    }\r\n\r\n    function verifyLevelOfUser(address user) internal {\r\n        if (users[user].levelCareerPlan >= 5) return;\r\n        uint8 level = users[user].levelCareerPlan + 1;\r\n        PlanRequirements memory requirements = levelRequirements[level];\r\n        for(uint8 i = 1; i <= requirements.purchasedBoxes; i++) {\r\n            if(!users[user].directBoxes[i].purchased || !users[user].teamBoxes[i].purchased) return;\r\n            if(users[user].directBoxes[i].partnersCount < requirements.countReferrers\r\n                || users[user].teamBoxes[i].partnersCount < requirements.countReferrers) return;\r\n        }\r\n        users[user].levelCareerPlan = level;\r\n        careerPlan.addUserToLevel(user, users[user].id, level);\r\n    }\r\n\r\n    function verifyRequirementsForLottery(address user) internal {\r\n        if (users[user].activeInLottery) return;\r\n        for(uint8 i = 1; i <= 3; i++) {\r\n            if(!users[user].directBoxes[i].purchased || !users[user].teamBoxes[i].purchased)\r\n                return;\r\n        }\r\n        users[user].activeInLottery = true;\r\n        lottery.addUser(user);\r\n    }\r\n\r\n    function modifySmartDirectSponsor(address _sponsor, address _user, uint8 _box) private {\r\n        users[_sponsor].directBoxes[_box].childs.push(_user);\r\n        uint8 position = uint8(users[_sponsor].directBoxes[_box].childs.length);\r\n        emit NewUserChildEvent(_user, _sponsor, _box, true, position);\r\n        if (position < 3)\r\n            return applyDistribution(_user, _sponsor, _box, true);\r\n        SmartDirectBox storage directData = users[_sponsor].directBoxes[_box];\r\n        directData.childs = new address[](0);\r\n        if (!users[_sponsor].directBoxes[_box + 1].purchased && _box != 14) directData.inactive = true;\r\n        directData.reinvests++;\r\n        if (externalAddress != _sponsor) {\r\n            address sponsorResult = findSponsor(_sponsor, _box, true);\r\n            directData.currentSponsor = sponsorResult;\r\n            emit ReinvestBoxEvent(_sponsor, sponsorResult, _user, _box, true);\r\n            modifySmartDirectSponsor(sponsorResult, _sponsor, _box);\r\n        } else {\r\n            applyDistribution(_user, _sponsor, _box, true);\r\n            emit ReinvestBoxEvent(_sponsor, address(0), _user, _box, true);\r\n        }\r\n    }\r\n\r\n    function findSponsor(address _addr, uint8 _box, bool _isSmartDirect) internal view returns(address) {\r\n        User memory node = users[_addr];\r\n        bool purchased;\r\n        if (_isSmartDirect) purchased = users[node.sponsor].directBoxes[_box].purchased;\r\n        else purchased = users[node.sponsor].teamBoxes[_box].purchased;\r\n        if (purchased) return node.sponsor;\r\n        return findSponsor(node.sponsor, _box, _isSmartDirect);\r\n    }\r\n\r\n    function modifySmartTeamSponsor(address _sponsor, address _user, uint8 _box) private {\r\n        SmartTeamBox storage sponsorBoxData = users[_sponsor].teamBoxes[_box];\r\n\r\n        if (sponsorBoxData.firstLevelChilds.length < 2) {\r\n            sponsorBoxData.firstLevelChilds.push(_user);\r\n            users[_user].teamBoxes[_box].currentSponsor = _sponsor;\r\n            emit NewUserChildEvent(_user, _sponsor, _box, false, uint8(sponsorBoxData.firstLevelChilds.length));\r\n\r\n            if (_sponsor == externalAddress)\r\n                return applyDistribution(_user, _sponsor, _box, false);\r\n\r\n            address currentSponsor = sponsorBoxData.currentSponsor;\r\n            users[currentSponsor].teamBoxes[_box].secondLevelChilds.push(_user);\r\n\r\n            uint8 len = uint8(users[currentSponsor].teamBoxes[_box].firstLevelChilds.length);\r\n\r\n            for(uint8 i = len - 1; i >= 0; i++) {\r\n                if(users[currentSponsor].teamBoxes[_box].firstLevelChilds[i] == _sponsor) {\r\n                    emit NewUserChildEvent(_user, currentSponsor, _box, false, uint8((2 * (i + 1)) + sponsorBoxData.firstLevelChilds.length));\r\n                    break;\r\n                }\r\n            }\r\n\r\n            return modifySmartTeamSecondLevel(_user, currentSponsor, _box);\r\n        }\r\n\r\n        sponsorBoxData.secondLevelChilds.push(_user);\r\n\r\n        if (sponsorBoxData.closedAddr != address(0)) {\r\n            uint8 index;\r\n            if (sponsorBoxData.firstLevelChilds[0] == sponsorBoxData.closedAddr) {\r\n                index = 1;\r\n            }\r\n            modifySmartTeam(_sponsor, _user, _box, index);\r\n            return modifySmartTeamSecondLevel(_user, _sponsor, _box);\r\n        }\r\n\r\n        for(uint8 i = 0;i < 2;i++) {\r\n            if(sponsorBoxData.firstLevelChilds[i] == _user) {\r\n                modifySmartTeam(_sponsor, _user, _box, i^1);\r\n                return modifySmartTeamSecondLevel(_user, _sponsor, _box);\r\n            }\r\n        }\r\n        uint8 index = 1;\r\n        if (users[sponsorBoxData.firstLevelChilds[0]].teamBoxes[_box].firstLevelChilds.length <=\r\n            users[sponsorBoxData.firstLevelChilds[1]].teamBoxes[_box].firstLevelChilds.length) {\r\n            index = 0;\r\n        }\r\n        modifySmartTeam(_sponsor, _user, _box, index);\r\n        modifySmartTeamSecondLevel(_user, _sponsor, _box);\r\n    }\r\n\r\n    function modifySmartTeam(address _sponsor, address _user, uint8 _box, uint8 _index) private {\r\n        User storage userData = users[_user];\r\n        User storage sponsorData = users[_sponsor];\r\n        address chieldAddress = sponsorData.teamBoxes[_box].firstLevelChilds[_index];\r\n        User storage childData = users[chieldAddress];\r\n        childData.teamBoxes[_box].firstLevelChilds.push(_user);\r\n        uint8 length = uint8(childData.teamBoxes[_box].firstLevelChilds.length);\r\n        uint position = (2**(_index + 1)) + length;\r\n        emit NewUserChildEvent(_user, chieldAddress, _box, false, length);\r\n        emit NewUserChildEvent(_user, _sponsor, _box, false, uint8(position));\r\n        userData.teamBoxes[_box].currentSponsor = chieldAddress;\r\n    }\r\n\r\n    function modifySmartTeamSecondLevel(address _user, address _sponsor, uint8 _box) private {\r\n        User storage sponsorData = users[_sponsor];\r\n        if (sponsorData.teamBoxes[_box].secondLevelChilds.length < 4)\r\n            return applyDistribution(_user, _sponsor, _box, false);\r\n\r\n        User storage currentSponsorData = users[sponsorData.teamBoxes[_box].currentSponsor];\r\n        address[] memory childs = currentSponsorData.teamBoxes[_box].firstLevelChilds;\r\n\r\n        for(uint8 i = 0;i < childs.length;i++) {\r\n            if(childs[i] == _sponsor)\r\n                currentSponsorData.teamBoxes[_box].closedAddr = _sponsor;\r\n        }\r\n        sponsorData.teamBoxes[_box].firstLevelChilds = new address[](0);\r\n        sponsorData.teamBoxes[_box].secondLevelChilds = new address[](0);\r\n        sponsorData.teamBoxes[_box].closedAddr = address(0);\r\n        sponsorData.teamBoxes[_box].reinvests++;\r\n\r\n        if (!sponsorData.teamBoxes[_box + 1].purchased && _box != 14)\r\n            sponsorData.teamBoxes[_box].inactive = true;\r\n\r\n        if (sponsorData.id == 1) {\r\n            emit ReinvestBoxEvent(_sponsor, address(0), _user, _box, false);\r\n            return applyDistribution(_user, _sponsor, _box, false);\r\n        }\r\n        address sponsorResult = findSponsor(_sponsor, _box, false);\r\n        emit ReinvestBoxEvent(_sponsor, sponsorResult, _user, _box, false);\r\n        modifySmartTeamSponsor(sponsorResult, _sponsor, _box);\r\n    }\r\n\r\n    function applyDistribution(address _from, address _to, uint8 _box, bool _isSmartDirect) private {\r\n        (address receiver, bool haveMissed) = getReceiver(_from, _to, _box, _isSmartDirect, false);\r\n        if(!address(uint160(receiver)).send(boxDistribution[_box].user))\r\n            address(uint160(receiver)).transfer(boxDistribution[_box].user);\r\n        if(!address(uint160(externalAddress)).send(boxDistribution[_box].owner))\r\n            address(uint160(externalAddress)).transfer(boxDistribution[_box].owner);\r\n        if(!address(uint160(externalFeeAddress)).send(boxDistribution[_box].fee))\r\n            address(uint160(externalFeeAddress)).transfer(boxDistribution[_box].fee);\r\n        lottery.addToRaffle.value(boxDistribution[_box].lotto)();\r\n        careerPlan.addToBalance.value(boxDistribution[_box].careerPlan)();\r\n        if (haveMissed)\r\n            emit SentExtraEvent(_from, receiver, _box, _isSmartDirect);\r\n    }\r\n\r\n    function percentage(uint amount, uint8 ptg) internal pure returns(uint) {\r\n        return amount * ptg / 100;\r\n    }\r\n\r\n    function getReceiver(address _from, address _to, uint8 _box, bool _isSmartDirect, bool _haveMissed) private  returns(address, bool) {\r\n        bool blocked;\r\n        address sponsor;\r\n        if (_isSmartDirect) {\r\n            SmartDirectBox memory directBoxData = users[_to].directBoxes[_box];\r\n            blocked = directBoxData.inactive;\r\n            sponsor = directBoxData.currentSponsor;\r\n        } else {\r\n            SmartTeamBox memory teamBoxData = users[_to].teamBoxes[_box];\r\n            blocked = teamBoxData.inactive;\r\n            sponsor = teamBoxData.currentSponsor;\r\n        }\r\n        if (!blocked) return (_to, _haveMissed);\r\n        emit MissedEvent(_from, _to, _box, _isSmartDirect);\r\n        return getReceiver(_from, sponsor, _box, _isSmartDirect, true);\r\n    }\r\n\r\n    function userSmartDirectBoxInfo(address _user, uint8 _box) public view returns(bool, bool, uint, address[] memory, address) {\r\n        SmartDirectBox memory data = users[_user].directBoxes[_box];\r\n        return (data.purchased, data.inactive, data.reinvests,\r\n        data.childs, data.currentSponsor);\r\n    }\r\n\r\n    function userSmartTeamBoxInfo(address _user, uint8 _box) public view returns(bool, bool, uint, address, address[] memory, address[] memory, address) {\r\n        SmartTeamBox memory data = users[_user].teamBoxes[_box];\r\n        return (data.purchased, data.inactive, data.reinvests, data.closedAddr,\r\n        data.firstLevelChilds, data.secondLevelChilds, data.currentSponsor);\r\n    }\r\n\r\n    function isValidUser(address _user) public view returns (bool) {\r\n        return (users[_user].id != 0);\r\n    }\r\n}\r\n",
  "sourcePath": "D:/Work/Projects/bios techology/smart-lotto/smart-lotto-tron/tron/contracts/SmartLotto.sol",
  "compiler": {
    "name": "solc",
    "version": "0.5.10+commit.a1d534ef.Emscripten.clang"
  },
  "schemaVersion": "2.0.1",
  "updatedAt": "2020-09-10T20:19:03.503Z"
}